{
  "contractName": "ACE",
  "abi": [
    {
      "constant": true,
      "inputs": [],
      "name": "JOIN_SPLIT_PROOF",
      "outputs": [
        {
          "name": "",
          "type": "uint24"
        }
      ],
      "payable": false,
      "stateMutability": "view",
      "type": "function"
    },
    {
      "constant": true,
      "inputs": [],
      "name": "ZERO_VALUE_NOTE_HASH",
      "outputs": [
        {
          "name": "",
          "type": "bytes32"
        }
      ],
      "payable": false,
      "stateMutability": "view",
      "type": "function"
    },
    {
      "constant": false,
      "inputs": [
        {
          "name": "_value",
          "type": "uint256"
        }
      ],
      "name": "supplementTokens",
      "outputs": [],
      "payable": false,
      "stateMutability": "nonpayable",
      "type": "function"
    },
    {
      "constant": true,
      "inputs": [
        {
          "name": "",
          "type": "uint256"
        },
        {
          "name": "",
          "type": "uint256"
        },
        {
          "name": "",
          "type": "uint256"
        }
      ],
      "name": "disabledValidators",
      "outputs": [
        {
          "name": "",
          "type": "bool"
        }
      ],
      "payable": false,
      "stateMutability": "view",
      "type": "function"
    },
    {
      "constant": true,
      "inputs": [],
      "name": "PRIVATE_RANGE_PROOF",
      "outputs": [
        {
          "name": "",
          "type": "uint24"
        }
      ],
      "payable": false,
      "stateMutability": "view",
      "type": "function"
    },
    {
      "constant": true,
      "inputs": [
        {
          "name": "",
          "type": "uint256"
        },
        {
          "name": "",
          "type": "uint256"
        },
        {
          "name": "",
          "type": "uint256"
        }
      ],
      "name": "validators",
      "outputs": [
        {
          "name": "",
          "type": "address"
        }
      ],
      "payable": false,
      "stateMutability": "view",
      "type": "function"
    },
    {
      "constant": false,
      "inputs": [],
      "name": "renounceOwnership",
      "outputs": [],
      "payable": false,
      "stateMutability": "nonpayable",
      "type": "function"
    },
    {
      "constant": true,
      "inputs": [],
      "name": "DIVIDEND_PROOF",
      "outputs": [
        {
          "name": "",
          "type": "uint24"
        }
      ],
      "payable": false,
      "stateMutability": "view",
      "type": "function"
    },
    {
      "constant": true,
      "inputs": [],
      "name": "owner",
      "outputs": [
        {
          "name": "",
          "type": "address"
        }
      ],
      "payable": false,
      "stateMutability": "view",
      "type": "function"
    },
    {
      "constant": true,
      "inputs": [],
      "name": "MINT_PROOF",
      "outputs": [
        {
          "name": "",
          "type": "uint24"
        }
      ],
      "payable": false,
      "stateMutability": "view",
      "type": "function"
    },
    {
      "constant": true,
      "inputs": [],
      "name": "isOwner",
      "outputs": [
        {
          "name": "",
          "type": "bool"
        }
      ],
      "payable": false,
      "stateMutability": "view",
      "type": "function"
    },
    {
      "constant": false,
      "inputs": [
        {
          "name": "_proof",
          "type": "uint24"
        },
        {
          "name": "_proofOutput",
          "type": "bytes"
        },
        {
          "name": "_proofSender",
          "type": "address"
        }
      ],
      "name": "updateNoteRegistry",
      "outputs": [],
      "payable": false,
      "stateMutability": "nonpayable",
      "type": "function"
    },
    {
      "constant": true,
      "inputs": [],
      "name": "latestEpoch",
      "outputs": [
        {
          "name": "",
          "type": "uint8"
        }
      ],
      "payable": false,
      "stateMutability": "view",
      "type": "function"
    },
    {
      "constant": false,
      "inputs": [
        {
          "name": "_linkedTokenAddress",
          "type": "address"
        },
        {
          "name": "_scalingFactor",
          "type": "uint256"
        },
        {
          "name": "_canAdjustSupply",
          "type": "bool"
        },
        {
          "name": "_canConvert",
          "type": "bool"
        }
      ],
      "name": "createNoteRegistry",
      "outputs": [],
      "payable": false,
      "stateMutability": "nonpayable",
      "type": "function"
    },
    {
      "constant": true,
      "inputs": [
        {
          "name": "",
          "type": "bytes32"
        }
      ],
      "name": "validatedProofs",
      "outputs": [
        {
          "name": "",
          "type": "bool"
        }
      ],
      "payable": false,
      "stateMutability": "view",
      "type": "function"
    },
    {
      "constant": true,
      "inputs": [],
      "name": "BURN_PROOF",
      "outputs": [
        {
          "name": "",
          "type": "uint24"
        }
      ],
      "payable": false,
      "stateMutability": "view",
      "type": "function"
    },
    {
      "constant": false,
      "inputs": [
        {
          "name": "_registryOwner",
          "type": "address"
        },
        {
          "name": "_proofHash",
          "type": "bytes32"
        },
        {
          "name": "_value",
          "type": "uint256"
        }
      ],
      "name": "publicApprove",
      "outputs": [],
      "payable": false,
      "stateMutability": "nonpayable",
      "type": "function"
    },
    {
      "constant": false,
      "inputs": [
        {
          "name": "newOwner",
          "type": "address"
        }
      ],
      "name": "transferOwnership",
      "outputs": [],
      "payable": false,
      "stateMutability": "nonpayable",
      "type": "function"
    },
    {
      "constant": true,
      "inputs": [
        {
          "name": "_owner",
          "type": "address"
        }
      ],
      "name": "getRegistry",
      "outputs": [
        {
          "name": "linkedToken",
          "type": "address"
        },
        {
          "name": "scalingFactor",
          "type": "uint256"
        },
        {
          "name": "totalSupply",
          "type": "uint256"
        },
        {
          "name": "confidentialTotalMinted",
          "type": "bytes32"
        },
        {
          "name": "confidentialTotalBurned",
          "type": "bytes32"
        },
        {
          "name": "canConvert",
          "type": "bool"
        },
        {
          "name": "canAdjustSupply",
          "type": "bool"
        }
      ],
      "payable": false,
      "stateMutability": "view",
      "type": "function"
    },
    {
      "constant": true,
      "inputs": [
        {
          "name": "_registryOwner",
          "type": "address"
        },
        {
          "name": "_noteHash",
          "type": "bytes32"
        }
      ],
      "name": "getNote",
      "outputs": [
        {
          "name": "status",
          "type": "uint8"
        },
        {
          "name": "createdOn",
          "type": "uint40"
        },
        {
          "name": "destroyedOn",
          "type": "uint40"
        },
        {
          "name": "noteOwner",
          "type": "address"
        }
      ],
      "payable": false,
      "stateMutability": "view",
      "type": "function"
    },
    {
      "inputs": [],
      "payable": false,
      "stateMutability": "nonpayable",
      "type": "constructor"
    },
    {
      "anonymous": false,
      "inputs": [
        {
          "indexed": false,
          "name": "_commonReferenceString",
          "type": "bytes32[6]"
        }
      ],
      "name": "SetCommonReferenceString",
      "type": "event"
    },
    {
      "anonymous": false,
      "inputs": [
        {
          "indexed": true,
          "name": "epoch",
          "type": "uint8"
        },
        {
          "indexed": true,
          "name": "category",
          "type": "uint8"
        },
        {
          "indexed": true,
          "name": "id",
          "type": "uint8"
        },
        {
          "indexed": false,
          "name": "validatorAddress",
          "type": "address"
        }
      ],
      "name": "SetProof",
      "type": "event"
    },
    {
      "anonymous": false,
      "inputs": [
        {
          "indexed": false,
          "name": "newLatestEpoch",
          "type": "uint8"
        }
      ],
      "name": "IncrementLatestEpoch",
      "type": "event"
    },
    {
      "anonymous": false,
      "inputs": [
        {
          "indexed": false,
          "name": "registryOwner",
          "type": "address"
        },
        {
          "indexed": false,
          "name": "registryAddress",
          "type": "address"
        },
        {
          "indexed": false,
          "name": "scalingFactor",
          "type": "uint256"
        },
        {
          "indexed": false,
          "name": "linkedTokenAddress",
          "type": "address"
        },
        {
          "indexed": false,
          "name": "canAdjustSupply",
          "type": "bool"
        },
        {
          "indexed": false,
          "name": "canConvert",
          "type": "bool"
        }
      ],
      "name": "CreateNoteRegistry",
      "type": "event"
    },
    {
      "anonymous": false,
      "inputs": [
        {
          "indexed": true,
          "name": "previousOwner",
          "type": "address"
        },
        {
          "indexed": true,
          "name": "newOwner",
          "type": "address"
        }
      ],
      "name": "OwnershipTransferred",
      "type": "event"
    },
    {
      "constant": false,
      "inputs": [
        {
          "name": "_proof",
          "type": "uint24"
        },
        {
          "name": "_proofData",
          "type": "bytes"
        },
        {
          "name": "_proofSender",
          "type": "address"
        }
      ],
      "name": "mint",
      "outputs": [
        {
          "name": "",
          "type": "bytes"
        }
      ],
      "payable": false,
      "stateMutability": "nonpayable",
      "type": "function"
    },
    {
      "constant": false,
      "inputs": [
        {
          "name": "_proof",
          "type": "uint24"
        },
        {
          "name": "_proofData",
          "type": "bytes"
        },
        {
          "name": "_proofSender",
          "type": "address"
        }
      ],
      "name": "burn",
      "outputs": [
        {
          "name": "",
          "type": "bytes"
        }
      ],
      "payable": false,
      "stateMutability": "nonpayable",
      "type": "function"
    },
    {
      "constant": false,
      "inputs": [
        {
          "name": "_proof",
          "type": "uint24"
        },
        {
          "name": "_sender",
          "type": "address"
        },
        {
          "name": "",
          "type": "bytes"
        }
      ],
      "name": "validateProof",
      "outputs": [
        {
          "name": "",
          "type": "bytes"
        }
      ],
      "payable": false,
      "stateMutability": "nonpayable",
      "type": "function"
    },
    {
      "constant": false,
      "inputs": [
        {
          "name": "_proof",
          "type": "uint24"
        },
        {
          "name": "_proofHashes",
          "type": "bytes32[]"
        }
      ],
      "name": "clearProofByHashes",
      "outputs": [],
      "payable": false,
      "stateMutability": "nonpayable",
      "type": "function"
    },
    {
      "constant": false,
      "inputs": [
        {
          "name": "_commonReferenceString",
          "type": "bytes32[6]"
        }
      ],
      "name": "setCommonReferenceString",
      "outputs": [],
      "payable": false,
      "stateMutability": "nonpayable",
      "type": "function"
    },
    {
      "constant": false,
      "inputs": [
        {
          "name": "_proof",
          "type": "uint24"
        }
      ],
      "name": "invalidateProof",
      "outputs": [],
      "payable": false,
      "stateMutability": "nonpayable",
      "type": "function"
    },
    {
      "constant": true,
      "inputs": [
        {
          "name": "_proof",
          "type": "uint24"
        },
        {
          "name": "_proofHash",
          "type": "bytes32"
        },
        {
          "name": "_sender",
          "type": "address"
        }
      ],
      "name": "validateProofByHash",
      "outputs": [
        {
          "name": "",
          "type": "bool"
        }
      ],
      "payable": false,
      "stateMutability": "view",
      "type": "function"
    },
    {
      "constant": false,
      "inputs": [
        {
          "name": "_proof",
          "type": "uint24"
        },
        {
          "name": "_validatorAddress",
          "type": "address"
        }
      ],
      "name": "setProof",
      "outputs": [],
      "payable": false,
      "stateMutability": "nonpayable",
      "type": "function"
    },
    {
      "constant": false,
      "inputs": [],
      "name": "incrementLatestEpoch",
      "outputs": [],
      "payable": false,
      "stateMutability": "nonpayable",
      "type": "function"
    },
    {
      "constant": true,
      "inputs": [],
      "name": "getCommonReferenceString",
      "outputs": [
        {
          "name": "",
          "type": "bytes32[6]"
        }
      ],
      "payable": false,
      "stateMutability": "view",
      "type": "function"
    },
    {
      "constant": true,
      "inputs": [
        {
          "name": "_proof",
          "type": "uint24"
        }
      ],
      "name": "getValidatorAddress",
      "outputs": [
        {
          "name": "validatorAddress",
          "type": "address"
        }
      ],
      "payable": false,
      "stateMutability": "view",
      "type": "function"
    }
  ],
  "bytecode": "0x6080604052640108000009805460ff1916600117905534801561002157600080fd5b5060008054600160a060020a0319163317808255604051600160a060020a039190911691907f8be0079c531659141344cd1fd0a4f28419497f9722a3daafe3b4186f6b6457e0908290a36131498061007a6000396000f3fe608060405234801561001057600080fd5b50600436106101e45760003560e01c80638f32d59b1161010f578063d19287a6116100a2578063edc6197c11610071578063edc6197c1461080b578063f2fde38b1461082d578063f971d77c14610853578063fedee266146108bf576101e4565b8063d19287a61461070c578063dd695b7214610791578063df924625146107d1578063e308d6ff146107d9576101e4565b8063a5468ca2116100de578063a5468ca214610689578063b05dd173146106c5578063b2aad218146106cd578063caaaa5d8146106ea576101e4565b80638f32d59b1461051c578063977796d2146105245780639cb118bf146105e1578063a2866ea3146105ff576101e4565b80634e982ca7116101875780638500e1f8116101565780638500e1f8146104cd5780638da5cb5b146104d55780638e526d9b146104dd5780638f19301b146104e5576101e4565b80634e982ca71461033457806356a0d47714610379578063715018a6146103cb57806380037eeb146103d3576101e4565b806343b54208116101c357806343b54208146102a1578063465903dd146102be57806349518b28146102fb5780634d1d4dc614610303576101e4565b80625bf732146101e957806307616051146102095780633b41828014610223575b600080fd5b6101f1610927565b6040805162ffffff9092168252519081900360200190f35b61021161092e565b60408051918252519081900360200190f35b61029f6004803603604081101561023957600080fd5b62ffffff823516919081019060408101602082013564010000000081111561026057600080fd5b82018360208201111561027257600080fd5b8035906020019184602083028401116401000000008311171561029457600080fd5b509092509050610952565b005b61029f600480360360208110156102b757600080fd5b5035610a8a565b6102e7600480360360608110156102d457600080fd5b5080359060208101359060400135610c54565b604080519115158252519081900360200190f35b6101f1610ca6565b61029f6004803603604081101561031957600080fd5b50803562ffffff169060200135600160a060020a0316610cad565b61035d6004803603606081101561034a57600080fd5b5080359060208101359060400135610ef8565b60408051600160a060020a039092168252519081900360200190f35b61029f600480360360c081101561038f57600080fd5b810190808060c001906006806020026040519081016040528092919082600660200280828437600092019190915250919450610f3f9350505050565b61029f610ff4565b610458600480360360608110156103e957600080fd5b62ffffff823516919081019060408101602082013564010000000081111561041057600080fd5b82018360208201111561042257600080fd5b8035906020019184600183028401116401000000008311171561044457600080fd5b919350915035600160a060020a03166110a9565b6040805160208082528351818301528351919283929083019185019080838360005b8381101561049257818101518382015260200161047a565b50505050905090810190601f1680156104bf5780820380516001836020036101000a031916815260200191505b509250505060405180910390f35b6101f161144f565b61035d611456565b6101f1611466565b6102e7600480360360608110156104fb57600080fd5b50803562ffffff169060208101359060400135600160a060020a031661146d565b6102e7611512565b61029f6004803603606081101561053a57600080fd5b62ffffff823516919081019060408101602082013564010000000081111561056157600080fd5b82018360208201111561057357600080fd5b8035906020019184600183028401116401000000008311171561059557600080fd5b91908080601f01602080910402602001604051908101604052809392919081815260200183838082843760009201919091525092955050509035600160a060020a031691506115239050565b6105e96118e2565b6040805160ff9092168252519081900360200190f35b6104586004803603606081101561061557600080fd5b62ffffff82351691600160a060020a036020820135169181019060608101604082013564010000000081111561064a57600080fd5b82018360208201111561065c57600080fd5b8035906020019184600183028401116401000000008311171561067e57600080fd5b5090925090506118ef565b61029f6004803603608081101561069f57600080fd5b50600160a060020a03813516906020810135906040810135151590606001351515611aad565b61029f611d9a565b6102e7600480360360208110156106e357600080fd5b5035611e4c565b61029f6004803603602081101561070057600080fd5b503562ffffff16611e65565b6104586004803603606081101561072257600080fd5b62ffffff823516919081019060408101602082013564010000000081111561074957600080fd5b82018360208201111561075b57600080fd5b8035906020019184600183028401116401000000008311171561077d57600080fd5b919350915035600160a060020a0316611fb5565b6107996122e2565b604051808260c080838360005b838110156107be5781810151838201526020016107a6565b5050505090500191505060405180910390f35b6101f161231d565b61029f600480360360608110156107ef57600080fd5b50600160a060020a038135169060208101359060400135612324565b61035d6004803603602081101561082157600080fd5b503562ffffff166123c5565b61029f6004803603602081101561084357600080fd5b5035600160a060020a0316612465565b6108796004803603602081101561086957600080fd5b5035600160a060020a03166124cf565b60408051600160a060020a03909816885260208801969096528686019490945260608601929092526080850152151560a0840152151560c0830152519081900360e00190f35b6108eb600480360360408110156108d557600080fd5b50600160a060020a03813516906020013561261b565b6040805160ff909516855264ffffffffff93841660208601529190921683820152600160a060020a039091166060830152519081900360800190f35b6201010181565b7fcbc417524e52b95c42a4c42d357938497e3d199eb9b4a0139c92551d4000bc3c81565b8060005b81811015610a8357600084848381811061096c57fe5b60200291909101359150508015156109ce576040805160e560020a62461bcd02815260206004820152601c60248201527f6578706563746564206e6f20656d7074792070726f6f66206861736800000000604482015290519081900360640190fd5b60408051602080820184905262ffffff891682840152336060808401919091528351808403909101815260809092018352815191810191909120600081815264010800000a9092529190205460ff161515600114610a605760405160e560020a62461bcd02815260040180806020018281038252602a815260200180612ece602a913960400191505060405180910390fd5b600090815264010800000a60205260409020805460ff1916905550600101610956565b5050505050565b3360009081526001602081905260409091206006810154909160ff909116151514610ae95760405160e560020a62461bcd028152600401808060200182810382526032815260200180612f4b6032913960400191505060405180910390fd5b600681015462010000900460ff161515600114610b3a5760405160e560020a62461bcd02815260040180806020018281038252602d815260200180612f1e602d913960400191505060405180910390fd5b600681015460ff610100909104161515600114610b8b5760405160e560020a62461bcd028152600401808060200182810382526030815260200180612d546030913960400191505060405180910390fd5b80546001820154600160a060020a03909116906323b872dd9033903090610bb990879063ffffffff6126f016565b6040805163ffffffff861660e01b8152600160a060020a0394851660048201529290931660248301526044820152905160648083019260209291908290030181600087803b158015610c0a57600080fd5b505af1158015610c1e573d6000803e3d6000fd5b505050506040513d6020811015610c3457600080fd5b50506002810154610c4b908363ffffffff61275916565b60029091015550565b64010000000983620100008110610c6757fe5b6108000201826101008110610c7857fe5b60080201816101008110610c8857fe5b602081049091015460ff601f9092166101000a900416925083915050565b6201040281565b610cb5611512565b1515610d0b576040805160e560020a62461bcd02815260206004820152601e60248201527f6f6e6c7920746865206f776e65722063616e2073657420612070726f6f660000604482015290519081900360640190fd5b600160a060020a0381161515610d555760405160e560020a62461bcd0281526004018080602001828103825260278152602001806130ab6027913960400191505060405180910390fd5b6000806000610d688562ffffff166127b6565b64010800000954929550909350915060ff9081169084161115610dbf5760405160e560020a62461bcd028152600401808060200182810382526036815260200180612dfd6036913960400191505060405180910390fd5b6000600960ff8516620100008110610dd357fe5b62010000020160ff84166101008110610de857fe5b61010002018260ff1661010081101515610dfe57fe5b0154600160a060020a031614610e485760405160e560020a62461bcd028152600401808060200182810382526022815260200180612e5c6022913960400191505060405180910390fd5b83600960ff8516620100008110610e5b57fe5b62010000020160ff84166101008110610e7057fe5b61010002018260ff1661010081101515610e8657fe5b01805473ffffffffffffffffffffffffffffffffffffffff1916600160a060020a039283161790556040805191861682525160ff8381169285821692918716917f056d19b176848b2ba83ba7d1d83c9022e6c1bd37d5c648a143ccec369e53f3c9916020908290030190a45050505050565b600983620100008110610f0757fe5b620100000201826101008110610f1957fe5b61010002018161010081101515610f2c57fe5b0154600160a060020a0316925083915050565b610f47611512565b1515610f875760405160e560020a62461bcd0281526004018080602001828103825260328152602001806130796032913960400191505060405180910390fd5b610f946003826006612c53565b507f85adab12e45179738a96f914df934f3d0b656588ea13f75093bd4796dc3e2736816040518082600660200280838360005b83811015610fdf578181015183820152602001610fc7565b5050505090500191505060405180910390a150565b610ffc611512565b1515611052576040805160e560020a62461bcd02815260206004820181905260248201527f4f776e61626c653a2063616c6c6572206973206e6f7420746865206f776e6572604482015290519081900360640190fd5b60008054604051600160a060020a03909116907f8be0079c531659141344cd1fd0a4f28419497f9722a3daafe3b4186f6b6457e0908390a36000805473ffffffffffffffffffffffffffffffffffffffff19169055565b336000908152600160208190526040909120600681015460609260ff9091161515146111095760405160e560020a62461bcd028152600401808060200182810382526032815260200180612f4b6032913960400191505060405180910390fd5b600681015460ff610100909104161515600114611170576040805160e560020a62461bcd02815260206004820152601a60248201527f74686973206173736574206973206e6f74206d696e7461626c65000000000000604482015290519081900360640190fd5b60006111808762ffffff166127b6565b5091505060ff81166002146111df576040805160e560020a62461bcd02815260206004820152601860248201527f74686973206973206e6f742061206d696e742070726f6f660000000000000000604482015290519081900360640190fd5b6040517fa2866ea300000000000000000000000000000000000000000000000000000000815262ffffff881660048201908152600160a060020a0386166024830152606060448301818152606484018990529092309263a2866ea3928c928a928d928d92608401848480828437600081840152601f19601f82011690508083019250505095505050505050600060405180830381600087803b15801561128457600080fd5b505af1158015611298573d6000803e3d6000fd5b505050506040513d6000823e601f3d908101601f1916820160405260208110156112c157600080fd5b8101908080516401000000008111156112d957600080fd5b820160208101848111156112ec57600080fd5b815164010000000081118282018710171561130657600080fd5b50509291905050509050600061131b826127d0565b11611370576040805160e560020a62461bcd02815260206004820152601c60248201527f63616c6c20746f2076616c696461746550726f6f66206661696c656400000000604482015290519081900360640190fd5b60608061138c61138784600063ffffffff6127d716565b612831565b509193509150600090506113ae6113a9848363ffffffff6127d716565b61285b565b509150508560030154811415156113f95760405160e560020a62461bcd028152600401808060200182810382526029815260200180612e336029913960400191505060405180910390fd5b600061140e6113a9848363ffffffff6127d716565b506003890181905591506060905061143061138787600163ffffffff6127d716565b505091505061143e81612879565b50939b9a5050505050505050505050565b6201040181565b600054600160a060020a03165b90565b6201020181565b600583901c6401000000090154604080516000858152602087905284835260608120919092529091601f861660031b1c80156114f3576040805160e560020a62461bcd02815260206004820152601d60248201527f70726f6f6620696420686173206265656e20696e76616c696461746564000000604482015290519081900360640190fd5b50600090815264010800000a602052604090205460ff16949350505050565b600054600160a060020a0316331490565b33600090815260016020526040902061153a612c91565b5060408051606081018252600683015460ff808216151580845261010083048216151560208501526201000090920416151592820192909252906001146115b55760405160e560020a62461bcd028152600401808060200182810382526032815260200180612f4b6032913960400191505060405180910390fd5b835160208501206115c786828661146d565b151560011461160a5760405160e560020a62461bcd028152600401808060200182810382526026815260200180612ef86026913960400191505060405180910390fd5b6000818152600260205260408120805460ff1916905560609081908061162f89612831565b935093509350935061164084612997565b61164983612879565b80156118d657604086015115156001146116975760405160e560020a62461bcd02815260040180806020018281038252602c815260200180612e7e602c913960400191505060405180910390fd5b600081121561181457600160a060020a03821660009081526008880160209081526040808320888452909152812054600289015490916116e0919084900363ffffffff61275916565b6002890155600082900381101561172b5760405160e560020a62461bcd028152600401808060200182810382526033815260200180612f7d6033913960400191505060405180910390fd5b61173f81600084900363ffffffff612af416565b600160a060020a03808516600090815260088b01602090815260408083208b8452909152812092909255895460018b01549116916323b872dd9186913091611790918890039063ffffffff6126f016565b6040805163ffffffff861660e01b8152600160a060020a0394851660048201529290931660248301526044820152905160648083019260209291908290030181600087803b1580156117e157600080fd5b505af11580156117f5573d6000803e3d6000fd5b505050506040513d602081101561180b57600080fd5b506118d6915050565b6002870154611829908263ffffffff612af416565b600288015586546001880154600160a060020a039091169063a9059cbb90849061185a90859063ffffffff6126f016565b6040518363ffffffff1660e01b81526004018083600160a060020a0316600160a060020a0316815260200182815260200192505050602060405180830381600087803b1580156118a957600080fd5b505af11580156118bd573d6000803e3d6000fd5b505050506040513d60208110156118d357600080fd5b50505b50505050505050505050565b6401080000095460ff1681565b606062ffffff8516151561194d576040805160e560020a62461bcd02815260206004820152601e60248201527f6578706563746564207468652070726f6f6620746f2062652076616c69640000604482015290519081900360640190fd5b6000611958866123c5565b905060606044356004016040516101006004820152876024820152600354604482015260036001015460648201526003600201546084820152600380015460a482015260036004015460c482015260036005015460e48201526101048101602083350180848337610104810160008082868a5afa80156119d7576119e3565b61019060005260206000fd5b503d6000853e5050503d810160405280510191505060ff62ffffff881660081c1660011415611aa3576000611a17826127d0565b905060005b81811015611aa0576000611a36848363ffffffff6127d716565b8051602091820120604080518084019290925262ffffff8d1682820152336060808401919091528151808403909101815260809092018152815191830191909120600090815264010800000a9092529020805460ff19166001908117909155919091019050611a1c565b50505b9695505050505050565b3360009081526001602052604090206006015460ff1615611b025760405160e560020a62461bcd02815260040180806020018281038252602a8152602001806130d2602a913960400191505060405180910390fd5b8015611b5257600160a060020a0384161515611b525760405160e560020a62461bcd02815260040180806020018281038252602a81526020018061302a602a913960400191505060405180910390fd5b611b5a612cb1565b60e06040519081016040528086600160a060020a03168152602001858152602001600081526020017fcbc417524e52b95c42a4c42d357938497e3d199eb9b4a0139c92551d4000bc3c60001b81526020017fcbc417524e52b95c42a4c42d357938497e3d199eb9b4a0139c92551d4000bc3c60001b81526020016000815260200160606040519081016040528060011515815260200186151581526020018515158152508152509050806001600033600160a060020a0316600160a060020a0316815260200190815260200160002060008201518160000160006101000a815481600160a060020a030219169083600160a060020a031602179055506020820151816001015560408201518160020155606082015181600301556080820151816004015560a0820151816005015560c08201518160060160008201518160000160006101000a81548160ff02191690831515021790555060208201518160000160016101000a81548160ff02191690831515021790555060408201518160000160026101000a81548160ff02191690831515021790555050509050507f34fbbb932061028a5177da0c6ca6a7359202a390c458f2c2c042ca3e4357d53e3330868887876040518087600160a060020a0316600160a060020a0316815260200186600160a060020a0316600160a060020a0316815260200185815260200184600160a060020a0316600160a060020a031681526020018315151515815260200182151515158152602001965050505050505060405180910390a15050505050565b611da2611512565b1515611de25760405160e560020a62461bcd02815260040180806020018281038252602a815260200180612d84602a913960400191505060405180910390fd5b64010800000954611dfd9060ff16600163ffffffff612b5416565b640108000009805460ff191660ff92831617908190556040805191909216815290517f9a76c82938224c049c704b5f4bfdbe9ef61749be7b65291103b97274b874665d916020908290030190a1565b64010800000a6020526000908152604090205460ff1681565b611e6d611512565b1515611ead5760405160e560020a62461bcd028152600401808060200182810382526025815260200180612d2f6025913960400191505060405180910390fd5b6000806000611ec08462ffffff166127b6565b919450925090506000600960ff8516620100008110611edb57fe5b62010000020160ff84166101008110611ef057fe5b61010002018260ff1661010081101515611f0657fe5b0154600160a060020a03161415611f515760405160e560020a62461bcd0281526004018080602001828103825260258152602001806130546025913960400191505060405180910390fd5b600164010000000960ff8516620100008110611f6957fe5b610800020160ff84166101008110611f7d57fe5b6008020160ff83166101008110611f9057fe5b602091828204019190066101000a81548160ff02191690831515021790555050505050565b336000908152600160208190526040909120600681015460609260ff9091161515146120155760405160e560020a62461bcd028152600401808060200182810382526032815260200180612f4b6032913960400191505060405180910390fd5b600681015460ff61010090910416151560011461207c576040805160e560020a62461bcd02815260206004820152601a60248201527f74686973206173736574206973206e6f74206275726e61626c65000000000000604482015290519081900360640190fd5b600061208c8762ffffff166127b6565b5091505060ff81166003146120eb576040805160e560020a62461bcd02815260206004820152601860248201527f74686973206973206e6f742061206275726e2070726f6f660000000000000000604482015290519081900360640190fd5b6040517fa2866ea300000000000000000000000000000000000000000000000000000000815262ffffff881660048201908152600160a060020a0386166024830152606060448301818152606484018990529092309263a2866ea3928c928a928d928d92608401848480828437600081840152601f19601f82011690508083019250505095505050505050600060405180830381600087803b15801561219057600080fd5b505af11580156121a4573d6000803e3d6000fd5b505050506040513d6000823e601f3d908101601f1916820160405260208110156121cd57600080fd5b8101908080516401000000008111156121e557600080fd5b820160208101848111156121f857600080fd5b815164010000000081118282018710171561221257600080fd5b50909450606093508392506122359150611387905084600063ffffffff6127d716565b509193509150600090506122526113a9848363ffffffff6127d716565b5091505085600401548114151561229d5760405160e560020a62461bcd028152600401808060200182810382526029815260200180612dd46029913960400191505060405180910390fd5b60006122b26113a9848363ffffffff6127d716565b50600489018190559150606090506122d461138787600163ffffffff6127d716565b505091505061143e81612997565b6122ea612cf5565b6040805160c08101918290529060039060069082845b815481526020019060010190808311612300575050505050905090565b6201030181565b600160a060020a03831660009081526001602081905260409091206006810154909160ff9091161515146123a2576040805160e560020a62461bcd02815260206004820152601c60248201527f6e6f746520726567697374727920646f6573206e6f7420657869737400000000604482015290519081900360640190fd5b336000908152600890910160209081526040808320948352939052919091205550565b600981015460008115801561245e57600160a060020a038316151561241e5760405160e560020a62461bcd0281526004018080602001828103825260278152602001806130ab6027913960400191505060405180910390fd5b811561245e5760405160e560020a62461bcd028152600401808060200182810382526031815260200180612ff96031913960400191505060405180910390fd5b5050919050565b61246d611512565b15156124c3576040805160e560020a62461bcd02815260206004820181905260248201527f4f776e61626c653a2063616c6c6572206973206e6f7420746865206f776e6572604482015290519081900360640190fd5b6124cc81612ba1565b50565b600160a060020a038116600090815260016020819052604082206006015482918291829182918291829160ff16151514612553576040805160e560020a62461bcd02815260206004820152601f60248201527f657870656374656420726567697374727920746f206265206372656174656400604482015290519081900360640190fd5b61255b612cb1565b50505050600160a060020a03948516600090815260016020818152604092839020835160e0810185528154909916895291820154888201908152600283015489850190815260038401546060808c01918252600486015460808d01908152600587015460a08e01528751918201885260069096015460ff808216151583526101008204811615159683019687526201000090910416151596810196875260c08c01529951915190519951935194519251919a909998509296509294509250565b600160a060020a038216600090815260016020908152604080832084845260070190915281205481908190819060ff1615156126a1576040805160e560020a62461bcd02815260206004820152601660248201527f6578706563746564206e6f746520746f20657869737400000000000000000000604482015290519081900360640190fd5b50505050600160a060020a03918216600090815260016020908152604080832093835260079093019052205460ff81169264ffffffffff600883901c811693603084901c9091169260581c1690565b600082151561270157506000612753565b82820282848281151561271057fe5b04146127505760405160e560020a62461bcd028152600401808060200182810382526021815260200180612fb06021913960400191505060405180910390fd5b90505b92915050565b600082820183811015612750576040805160e560020a62461bcd02815260206004820152601b60248201527f536166654d6174683a206164646974696f6e206f766572666c6f770000000000604482015290519081900360640190fd5b60ff62010000820481169261010083048216929190911690565b6020015190565b60208281015190820283016040015183019082108061282a5760405160e560020a62461bcd0281526004018080602001828103825260228152602001806130fc6022913960400191505060405180910390fd5b5092915050565b6020810151604082015160608301516080840151928401949190930192600160a060020a03169190565b60408101516060820151600160a060020a0390911692909160800190565b6001600080612887846127d0565b905060005b81811015610a83576000806128aa6113a9888563ffffffff6127d716565b509092509050600160a060020a03821615156128fa5760405160e560020a62461bcd028152600401808060200182810382526028815260200180612fd16028913960400191505060405180910390fd5b3360009081526001602090815260408083208484526007019091528120805460ff8981164264ffffffffff1660081b17605887901b17835516965090861461298c576040805160e560020a62461bcd02815260206004820152601260248201527f6f7574707574206e6f7465206578697374730000000000000000000000000000604482015290519081900360640190fd5b50505060010161288c565b6002600080806129a6856127d0565b905060005b81811015612aec576000806129c96113a9898563ffffffff6127d716565b50336000908152600160208181526040808420858552600701909152909120805460ff8c811664ffffffffff421660301b176affffffffff0000000000ff19831617835581169a50600160a060020a0360589190911c1698509294509092508714612a7e576040805160e560020a62461bcd02815260206004820181905260248201527f696e707574206e6f746520737461747573206973206e6f7420554e5350454e54604482015290519081900360640190fd5b600160a060020a0386811690841614612ae1576040805160e560020a62461bcd02815260206004820152601f60248201527f696e707574206e6f7465206f776e657220646f6573206e6f74206d6174636800604482015290519081900360640190fd5b5050506001016129ab565b505050505050565b600082821115612b4e576040805160e560020a62461bcd02815260206004820152601e60248201527f536166654d6174683a207375627472616374696f6e206f766572666c6f770000604482015290519081900360640190fd5b50900390565b600082820160ff80851690821610156127505760405160e560020a62461bcd028152600401808060200182810382526024815260200180612eaa6024913960400191505060405180910390fd5b600160a060020a0381161515612beb5760405160e560020a62461bcd028152600401808060200182810382526026815260200180612dae6026913960400191505060405180910390fd5b60008054604051600160a060020a03808516939216917f8be0079c531659141344cd1fd0a4f28419497f9722a3daafe3b4186f6b6457e091a36000805473ffffffffffffffffffffffffffffffffffffffff1916600160a060020a0392909216919091179055565b8260068101928215612c81579160200282015b82811115612c81578251825591602001919060010190612c66565b50612c8d929150612d14565b5090565b604080516060810182526000808252602082018190529181019190915290565b6040805161012081018252600080825260208201819052918101829052606081018290526080810182905260a081019190915260c08101612cf0612c91565b905290565b60c0604051908101604052806006906020820280388339509192915050565b61146391905b80821115612c8d5760008155600101612d1a56fe6f6e6c7920746865206f776e65722063616e20696e76616c696461746520612070726f6f666e6f746520726567697374727920646f6573206e6f742068617665206d696e7420616e64206275726e207269676874736f6e6c7920746865206f776e65722063616e2075706461746520746865206c61746573742065706f63684f776e61626c653a206e6577206f776e657220697320746865207a65726f206164647265737370726f766964656420746f74616c206275726e6564206e6f746520646f6573206e6f74206d617463687468652070726f6f662065706f63682063616e6e6f7420626520626967676572207468616e20746865206c61746573742065706f636870726f766964656420746f74616c206d696e746564206e6f746520646f6573206e6f74206d617463686578697374696e672070726f6f66732063616e6e6f74206265206d6f64696669656461737365742063616e6e6f7420626520636f6e76657274656420696e746f207075626c696320746f6b656e7375696e7438206164642074726967676572656420696e7465676572206f766572666c6f7763616e206f6e6c7920636c6561722070726576696f75736c792076616c6964617465642070726f6f667341434520686173206e6f742076616c6964617465642061206d61746368696e672070726f6f666e6f746520726567697374727920646f6573206e6f74206861766520636f6e76657273696f6e207269676874736e6f746520726567697374727920646f6573206e6f7420657869737420666f722074686520676976656e20616464726573737075626c6963206f776e657220686173206e6f742076616c6964617465642061207472616e73666572206f6620746f6b656e73536166654d6174683a206d756c7469706c69636174696f6e206f766572666c6f776f7574707574206e6f7465206f776e65722063616e6e6f74206265206164647265737328307830296578706563746564207468652076616c696461746f72206164647265737320746f206e6f742062652064697361626c6564657870656374656420746865206c696e6b656420746f6b656e206164647265737320746f20657869737463616e206f6e6c7920696e76616c69646174652070726f6f667320746861742065786973746f6e6c7920746865206f776e65722063616e207365742074686520636f6d6d6f6e207265666572656e636520737472696e676578706563746564207468652076616c696461746f72206164647265737320746f2065786973746164647265737320616c7265616479206861732061206c696e6b6564206e6f7465207265676973747279415a54454320617272617920696e646578206973206f7574206f6620626f756e6473a165627a7a723058203e921efe3f610c06ed3e8cc77fe07eaea7da85a72d9f51b6fde7bc22b02e16dd0029",
  "source": "pragma solidity >=0.5.0 <0.6.0;\n\nimport \"openzeppelin-solidity/contracts/math/SafeMath.sol\";\nimport \"openzeppelin-solidity/contracts/ownership/Ownable.sol\";\n\nimport \"./NoteRegistry.sol\";\n\nimport \"../interfaces/IAZTEC.sol\";\n\nimport \"../libs/NoteUtils.sol\";\nimport \"../libs/ProofUtils.sol\";\nimport \"../libs/SafeMath8.sol\";\n\n/**\n * @title The AZTEC Cryptography Engine\n * @author AZTEC\n * @dev ACE validates the AZTEC protocol's family of zero-knowledge proofs, which enables\n *      digital asset builders to construct fungible confidential digital assets according to the AZTEC token standard.\n * Copyright Spilsbury Holdings Ltd 2019. All rights reserved.\n **/\ncontract ACE is IAZTEC, Ownable, NoteRegistry {\n    using NoteUtils for bytes;\n    using ProofUtils for uint24;\n    using SafeMath for uint256;\n    using SafeMath8 for uint8;\n\n    // keccak256 hash of \"JoinSplitSignature(uint24 proof,bytes32 noteHash,uint256 challenge,address sender)\"\n    bytes32 constant internal JOIN_SPLIT_SIGNATURE_TYPE_HASH =\n        0xf671f176821d4c6f81e66f9704cdf2c5c12d34bd23561179229c9fe7a9e85462;\n    event SetCommonReferenceString(bytes32[6] _commonReferenceString);\n    event SetProof(\n        uint8 indexed epoch, \n        uint8 indexed category, \n        uint8 indexed id, \n        address validatorAddress\n    );\n    event IncrementLatestEpoch(uint8 newLatestEpoch);\n\n    // The commonReferenceString contains one G1 group element and one G2 group element,\n    // that are created via the AZTEC protocol's trusted setup. All zero-knowledge proofs supported\n    // by ACE use the same common reference string.\n    bytes32[6] private commonReferenceString;\n\n    // `validators`contains the addresses of the contracts that validate specific proof types\n    address[0x100][0x100][0x10000] public validators;\n\n    // a list of invalidated proof ids, used to blacklist proofs in the case of a vulnerability being discovered\n    bool[0x100][0x100][0x10000] public disabledValidators;\n    \n    // latest proof epoch accepted by this contract\n    uint8 public latestEpoch = 1;\n\n    // keep track of validated balanced proofs\n    mapping(bytes32 => bool) public validatedProofs;\n    \n    /**\n    * @dev contract constructor. Sets the owner of ACE\n    **/\n    constructor() public Ownable() {}\n\n    /**\n    * @dev Mint AZTEC notes\n    *      \n    * @param _proof the AZTEC proof object\n    * @param _proofData the mint proof construction data\n    * @param _proofSender the Ethereum address of the original transaction sender. It is explicitly assumed that\n    *        an asset using ACE supplies this field correctly - if they don't their asset is vulnerable to front-running\n    * Unnamed param is the AZTEC zero-knowledge proof data\n    * @return two `bytes` objects. The first contains the new confidentialTotalSupply note and the second contains the\n    * notes that were created. Returned so that a zkAsset can emit the appropriate events\n    */\n    function mint(\n        uint24 _proof,\n        bytes calldata _proofData,\n        address _proofSender\n    ) external returns (bytes memory) {\n        \n        Registry storage registry = registries[msg.sender];\n        require(registry.flags.active == true, \"note registry does not exist for the given address\");\n        require(registry.flags.canAdjustSupply == true, \"this asset is not mintable\");\n        \n        // Check that it's a mintable proof\n        (, uint8 category, ) = _proof.getProofComponents();\n\n        require(category == uint8(ProofCategory.MINT), \"this is not a mint proof\");\n\n        bytes memory _proofOutputs = this.validateProof(_proof, _proofSender, _proofData);\n        require(_proofOutputs.getLength() > 0, \"call to validateProof failed\");\n\n        // Dealing with notes representing totals\n        (bytes memory oldTotal,  // inputNotesTotal\n        bytes memory newTotal, // outputNotesTotal\n        ,\n        ) = _proofOutputs.get(0).extractProofOutput();\n\n        // Check the previous confidentialTotalSupply, and then assign the new one\n        (, bytes32 oldTotalNoteHash, ) = oldTotal.get(0).extractNote();        \n\n        require(oldTotalNoteHash == registry.confidentialTotalMinted, \"provided total minted note does not match\");\n        (, bytes32 newTotalNoteHash, ) = newTotal.get(0).extractNote();\n        registry.confidentialTotalMinted = newTotalNoteHash;\n\n        // Dealing with minted notes\n        (,\n        bytes memory mintedNotes, // output notes\n        ,\n        ) = _proofOutputs.get(1).extractProofOutput();\n\n        updateOutputNotes(mintedNotes);\n        return(_proofOutputs);\n    }\n\n    /**\n    * @dev Burn AZTEC notes\n    *      \n    * @param _proof the AZTEC proof object\n    * @param _proofData the burn proof construction data\n    * @param _proofSender the Ethereum address of the original transaction sender. It is explicitly assumed that\n    *        an asset using ACE supplies this field correctly - if they don't their asset is vulnerable to front-running\n    * Unnamed param is the AZTEC zero-knowledge proof data\n    * @return two `bytes` objects. The first contains the new confidentialTotalSupply note and the second contains the\n    * notes that were created. Returned so that a zkAsset can emit the appropriate events\n    */\n    function burn(\n        uint24 _proof,\n        bytes calldata _proofData,\n        address _proofSender\n    ) external returns (bytes memory) {\n        \n        Registry storage registry = registries[msg.sender];\n        require(registry.flags.active == true, \"note registry does not exist for the given address\");\n        require(registry.flags.canAdjustSupply == true, \"this asset is not burnable\");\n        \n        // Check that it's a burnable proof\n        (, uint8 category, ) = _proof.getProofComponents();\n\n        require(category == uint8(ProofCategory.BURN), \"this is not a burn proof\");\n\n        bytes memory _proofOutputs = this.validateProof(_proof, _proofSender, _proofData);\n        \n        // Dealing with notes representing totals\n        (bytes memory oldTotal, // input notes\n        bytes memory newTotal, // output notes\n        ,\n        ) = _proofOutputs.get(0).extractProofOutput();\n    \n        (, bytes32 oldTotalNoteHash, ) = oldTotal.get(0).extractNote();        \n        require(oldTotalNoteHash == registry.confidentialTotalBurned, \"provided total burned note does not match\");\n        (, bytes32 newTotalNoteHash, ) = newTotal.get(0).extractNote();\n        registry.confidentialTotalBurned = newTotalNoteHash;\n\n        // Dealing with burned notes\n        (,\n        bytes memory burnedNotes,\n        ,) = _proofOutputs.get(1).extractProofOutput();\n\n        // Although they are outputNotes, they are due to be destroyed - need removing from the note registry\n        updateInputNotes(burnedNotes);\n        return(_proofOutputs);\n    }\n\n    /**\n    * @dev Validate an AZTEC zero-knowledge proof. ACE will issue a validation transaction to the smart contract\n    *      linked to `_proof`. The validator smart contract will have the following interface:\n    *      \n    *      function validate(\n    *          bytes _proofData, \n    *          address _sender, \n    *          bytes32[6] _commonReferenceString\n    *      ) public returns (bytes)\n    *\n    * @param _proof the AZTEC proof object\n    * @param _sender the Ethereum address of the original transaction sender. It is explicitly assumed that\n    *        an asset using ACE supplies this field correctly - if they don't their asset is vulnerable to front-running\n    * Unnamed param is the AZTEC zero-knowledge proof data\n    * @return a `bytes proofOutputs` variable formatted according to the Cryptography Engine standard\n    */\n    function validateProof(uint24 _proof, address _sender, bytes calldata) external returns (bytes memory) {\n        require(_proof != 0, \"expected the proof to be valid\");\n        // validate that the provided _proof object maps to a corresponding validator and also that\n        // the validator is not disabled\n        address validatorAddress = getValidatorAddress(_proof);\n        bytes memory proofOutputs;\n        assembly {\n            // the first evm word of the 3rd function param is the abi encoded location of proof data\n            let proofDataLocation := add(0x04, calldataload(0x44))\n\n            // manually construct validator calldata map\n            let memPtr := mload(0x40)\n            mstore(add(memPtr, 0x04), 0x100) // location in calldata of the start of `bytes _proofData` (0x100)\n            mstore(add(memPtr, 0x24), _sender)\n            mstore(add(memPtr, 0x44), sload(commonReferenceString_slot))\n            mstore(add(memPtr, 0x64), sload(add(0x01, commonReferenceString_slot)))\n            mstore(add(memPtr, 0x84), sload(add(0x02, commonReferenceString_slot)))\n            mstore(add(memPtr, 0xa4), sload(add(0x03, commonReferenceString_slot)))\n            mstore(add(memPtr, 0xc4), sload(add(0x04, commonReferenceString_slot)))\n            mstore(add(memPtr, 0xe4), sload(add(0x05, commonReferenceString_slot)))\n\n            // 0x104 because there's an address, the length 6 and the static array items\n            let destination := add(memPtr, 0x104)\n            // note that we offset by 0x20 because the first word is the length of the dynamic bytes array\n            let proofDataSize := add(calldataload(proofDataLocation), 0x20)\n            // copy the calldata into memory so we can call the validator contract\n            calldatacopy(destination, proofDataLocation, proofDataSize)\n            // call our validator smart contract, and validate the call succeeded\n            let callSize := add(proofDataSize, 0x104)\n            switch staticcall(gas, validatorAddress, memPtr, callSize, 0x00, 0x00)\n            case 0 {\n                mstore(0x00, 400) revert(0x00, 0x20) // call failed because proof is invalid\n            }\n\n            // copy returndata to memory\n            returndatacopy(memPtr, 0x00, returndatasize)\n            // store the proof outputs in memory\n            mstore(0x40, add(memPtr, returndatasize))\n            // the first evm word in the memory pointer is the abi encoded location of the actual returned data\n            proofOutputs := add(memPtr, mload(memPtr))\n        }\n\n        // if this proof satisfies a balancing relationship, we need to record the proof hash\n        if (((_proof >> 8) & 0xff) == uint8(ProofCategory.BALANCED)) {\n            uint256 length = proofOutputs.getLength();\n            for (uint256 i = 0; i < length; i += 1) {\n                bytes32 proofHash = keccak256(proofOutputs.get(i));\n                bytes32 validatedProofHash = keccak256(abi.encode(proofHash, _proof, msg.sender));\n                validatedProofs[validatedProofHash] = true;\n            }\n        }\n        return proofOutputs;\n    }\n\n    /**\n    * @dev Clear storage variables set when validating zero-knowledge proofs.\n    *      The only address that can clear data from `validatedProofs` is the address that created the proof.\n    *      Function is designed to utilize [EIP-1283](https://github.com/ethereum/EIPs/blob/master/EIPS/eip-1283.md)\n    *      to reduce gas costs. It is highly likely that any storage variables set by `validateProof`\n    *      are only required for the duration of a single transaction.\n    *      E.g. a decentralized exchange validating a swap proof and sending transfer instructions to\n    *      two confidential assets.\n    *      This method allows the calling smart contract to recover most of the gas spent by setting `validatedProofs`\n    * @param _proof the AZTEC proof object\n    * @param _proofHashes dynamic array of proof hashes\n    */\n    function clearProofByHashes(uint24 _proof, bytes32[] calldata _proofHashes) external {\n        uint256 length = _proofHashes.length;\n        for (uint256 i = 0; i < length; i += 1) {\n            bytes32 proofHash = _proofHashes[i];\n            require(proofHash != bytes32(0x0), \"expected no empty proof hash\");\n            bytes32 validatedProofHash = keccak256(abi.encode(proofHash, _proof, msg.sender));\n            require(validatedProofs[validatedProofHash] == true, \"can only clear previously validated proofs\");\n            validatedProofs[validatedProofHash] = false;\n        }\n    }\n\n    /**\n    * @dev Set the common reference string.\n    *      If the trusted setup is re-run, we will need to be able to change the crs\n    * @param _commonReferenceString the new commonReferenceString\n    */\n    function setCommonReferenceString(bytes32[6] memory _commonReferenceString) public {\n        require(isOwner(), \"only the owner can set the common reference string\");\n        commonReferenceString = _commonReferenceString;\n        emit SetCommonReferenceString(_commonReferenceString);\n    }\n\n    /**\n    * @dev Forever invalidate the given proof.\n    * @param _proof the AZTEC proof object\n    */\n    function invalidateProof(uint24 _proof) public {\n        require(isOwner(), \"only the owner can invalidate a proof\");\n        (uint8 epoch, uint8 category, uint8 id) = _proof.getProofComponents();\n        require(validators[epoch][category][id] != address(0x0), \"can only invalidate proofs that exist\");\n        disabledValidators[epoch][category][id] = true;\n    }\n\n    /**\n    * @dev Validate a previously validated AZTEC proof via its hash\n    *      This enables confidential assets to receive transfer instructions from a dApp that\n    *      has already validated an AZTEC proof that satisfies a balancing relationship.\n    * @param _proof the AZTEC proof object\n    * @param _proofHash the hash of the `proofOutput` received by the asset\n    * @param _sender the Ethereum address of the contract issuing the transfer instruction\n    * @return a boolean that signifies whether the corresponding AZTEC proof has been validated\n    */\n    function validateProofByHash(\n        uint24 _proof,\n        bytes32 _proofHash,\n        address _sender\n    ) public view returns (bool) {\n        // We need create a unique encoding of _proof, _proofHash and _sender,\n        // and use as a key to access validatedProofs\n        // We do this by computing bytes32 validatedProofHash = keccak256(ABI.encode(_proof, _proofHash, _sender))\n        // We also need to access disabledValidators[_proof.epoch][_proof.category][_proof.id]\n        // This bit is implemented in Yul, as 3-dimensional array access chews through\n        // a lot of gas in Solidity, as does ABI.encode\n        bytes32 validatedProofHash;\n        bool isValidatorDisabled;\n        assembly {\n            // inside _proof, we have 3 packed variables : [epoch, category, id]\n            // each is a uint8.\n\n            // We need to compute the storage key for `disabledValidators[epoch][category][id]`\n            // Type of array is bool[0x100][0x100][0x100]\n            // Solidity will only squish 32 boolean variables into a single storage slot, not 256\n            // => result of disabledValidators[epoch][category] is stored in 0x08 storage slots\n            // => result of disabledValidators[epoch] is stored in 0x08 * 0x100 = 0x800 storage slots\n\n            // To compute the storage slot  disabledValidators[epoch][category][id], we do the following:\n            // 1. get the disabledValidators slot \n            // 2. add (epoch * 0x800) to the slot (or epoch << 11)\n            // 3. add (category * 0x08) to the slot (or category << 3)\n            // 4. add (id / 0x20) to the slot (or id >> 5)\n\n            // Once the storage slot has been loaded, we need to isolate the byte that contains our boolean\n            // This will be equal to id % 0x20, which is also id & 0x1f\n\n            // Putting this all together. The storage slot offset from '_proof' is...\n            // epoch: ((_proof & 0xff0000) >> 16) << 11 = ((_proof & 0xff0000) >> 5)\n            // category: ((_proof & 0xff00) >> 8) << 3 = ((_proof & 0xff00) >> 5)\n            // id: (_proof & 0xff) >> 5\n            // i.e. the storage slot offset = _proof >> 5\n\n            // the byte index of the storage word that we require, is equal to (_proof & 0x1f)\n            // to convert to a bit index, we multiply by 8\n            // i.e. bit index = shl(3, and(_proof & 0x1f))\n            // => result = shr(shl(3, and_proof & 0x1f), value)\n            isValidatorDisabled := \n                shr(\n                    shl(\n                        0x03,\n                        and(_proof, 0x1f)\n                    ),\n                    sload(add(shr(5, _proof), disabledValidators_slot))\n                )\n\n            // Next, compute validatedProofHash = keccak256(abi.encode(_proofHash, _proof, _sender))\n            // cache free memory pointer - we will overwrite it when computing hash (cheaper than using free memory)\n            let memPtr := mload(0x40)\n            mstore(0x00, _proofHash)\n            mstore(0x20, _proof)\n            mstore(0x40, _sender)\n            validatedProofHash := keccak256(0x00, 0x60)\n            mstore(0x40, memPtr) // restore the free memory pointer\n        }\n        require(isValidatorDisabled == false, \"proof id has been invalidated\");\n        return validatedProofs[validatedProofHash];\n    }\n\n    /**\n    * @dev Adds or modifies a proof into the Cryptography Engine.\n    *       This method links a given `_proof` to a smart contract validator.\n    * @param _proof the AZTEC proof object\n    * @param _validatorAddress the address of the smart contract validator\n    */\n    function setProof(\n        uint24 _proof,\n        address _validatorAddress\n    ) public {\n        require(isOwner(), \"only the owner can set a proof\");\n        require(_validatorAddress != address(0x0), \"expected the validator address to exist\");\n        (uint8 epoch, uint8 category, uint8 id) = _proof.getProofComponents();\n        require(epoch <= latestEpoch, \"the proof epoch cannot be bigger than the latest epoch\");\n        require(validators[epoch][category][id] == address(0x0), \"existing proofs cannot be modified\");\n        validators[epoch][category][id] = _validatorAddress;\n        emit SetProof(epoch, category, id, _validatorAddress);\n    }\n\n    /**\n     * @dev Increments the `latestEpoch` storage variable.\n     */\n    function incrementLatestEpoch() public {\n        require(isOwner(), \"only the owner can update the latest epoch\");\n        latestEpoch = latestEpoch.add(1);\n        emit IncrementLatestEpoch(latestEpoch);\n    }\n\n    /**\n    * @dev Returns the common reference string.\n    * We use a custom getter for `commonReferenceString` - the default getter created by making the storage\n    * variable public indexes individual elements of the array, and we want to return the whole array\n    */\n    function getCommonReferenceString() public view returns (bytes32[6] memory) {\n        return commonReferenceString;\n    }\n\n    function getValidatorAddress(uint24 _proof) public view returns (address validatorAddress) {\n        bool isValidatorDisabled;\n        bool queryInvalid;\n        assembly {\n            // To compute the storage key for validatorAddress[epoch][category][id], we do the following:\n            // 1. get the validatorAddress slot \n            // 2. add (epoch * 0x10000) to the slot\n            // 3. add (category * 0x100) to the slot\n            // 4. add (id) to the slot\n            // i.e. the range of storage pointers allocated to validatorAddress ranges from\n            // validatorAddress_slot to (0xffff * 0x10000 + 0xff * 0x100 + 0xff = validatorAddress_slot 0xffffffff)\n\n            // Conveniently, the multiplications we have to perform on epoch, category and id correspond\n            // to their byte positions in _proof.\n            // i.e. (epoch * 0x10000) = and(_proof, 0xffff0000)\n            // and  (category * 0x100) = and(_proof, 0xff00)\n            // and  (id) = and(_proof, 0xff)\n\n            // Putting this all together. The storage slot offset from '_proof' is...\n            // (_proof & 0xffff0000) + (_proof & 0xff00) + (_proof & 0xff)\n            // i.e. the storage slot offset IS the value of _proof\n            validatorAddress := sload(add(_proof, validators_slot))\n            queryInvalid := or(iszero(validatorAddress), isValidatorDisabled)\n        }\n\n        // wrap both require checks in a single if test. This means the happy path only has 1 conditional jump\n        if (queryInvalid) {\n            require(validatorAddress != address(0x0), \"expected the validator address to exist\");\n            require(isValidatorDisabled == false, \"expected the validator address to not be disabled\");\n        }\n    }\n}\n\n",
  "sourcePath": "@aztec/protocol/contracts/ACE/ACE.sol",
  "compiler": {
    "name": "solc",
    "version": "0.5.4+commit.9549d8ff.Emscripten.clang"
  },
  "schemaVersion": "3.0.11",
  "updatedAt": "2019-08-03T19:59:37.083Z",
  "devdoc": {
    "author": "AZTEC",
    "details": "ACE validates the AZTEC protocol's family of zero-knowledge proofs, which enables     digital asset builders to construct fungible confidential digital assets according to the AZTEC token standard. Copyright Spilsbury Holdings Ltd 2019. All rights reserved.*",
    "methods": {
      "burn(uint24,bytes,address)": {
        "details": "Burn AZTEC notes     ",
        "params": {
          "_proof": "the AZTEC proof object",
          "_proofData": "the burn proof construction data",
          "_proofSender": "the Ethereum address of the original transaction sender. It is explicitly assumed that       an asset using ACE supplies this field correctly - if they don't their asset is vulnerable to front-running Unnamed param is the AZTEC zero-knowledge proof data"
        },
        "return": "two `bytes` objects. The first contains the new confidentialTotalSupply note and the second contains the notes that were created. Returned so that a zkAsset can emit the appropriate events"
      },
      "clearProofByHashes(uint24,bytes32[])": {
        "details": "Clear storage variables set when validating zero-knowledge proofs.     The only address that can clear data from `validatedProofs` is the address that created the proof.     Function is designed to utilize [EIP-1283](https://github.com/ethereum/EIPs/blob/master/EIPS/eip-1283.md)     to reduce gas costs. It is highly likely that any storage variables set by `validateProof`     are only required for the duration of a single transaction.     E.g. a decentralized exchange validating a swap proof and sending transfer instructions to     two confidential assets.     This method allows the calling smart contract to recover most of the gas spent by setting `validatedProofs`",
        "params": {
          "_proof": "the AZTEC proof object",
          "_proofHashes": "dynamic array of proof hashes"
        }
      },
      "constructor": {
        "details": "contract constructor. Sets the owner of ACE*"
      },
      "getCommonReferenceString()": {
        "details": "Returns the common reference string. We use a custom getter for `commonReferenceString` - the default getter created by making the storage variable public indexes individual elements of the array, and we want to return the whole array"
      },
      "getNote(address,bytes32)": {
        "details": "Returns the note for a given address and note hash.",
        "params": {
          "_noteHash": "- keccak256 hash of the note coordiantes (gamma and sigma)",
          "_registryOwner": "- address of the registry owner"
        },
        "return": "status - status of the note, details whether the note is in a note registry or has been destroyedcreatedOn - time the note was createddestroyedOn - time the note was destroyednoteOwner - address of the note owner"
      },
      "getRegistry(address)": {
        "details": "Returns the registry for a given address.",
        "params": {
          "_owner": "- address of the registry owner in question"
        },
        "return": "linkedTokenAddress - public ERC20 token that is linked to the NoteRegistry. This is used to transfer public value into and out of the system     scalingFactor - defines how many ERC20 tokens are represented by one AZTEC notetotalSupply - TODOconfidentialTotalMinted - keccak256 hash of the note representing the total minted supplyconfidentialTotalBurned - keccak256 hash of the note representing the total burned supplycanConvert - flag set by the owner to decide whether the registry has public to private, and  vice versa, conversion privilegecanAdjustSupply - determines whether the registry has minting and burning privileges "
      },
      "incrementLatestEpoch()": {
        "details": "Increments the `latestEpoch` storage variable."
      },
      "invalidateProof(uint24)": {
        "details": "Forever invalidate the given proof.",
        "params": {
          "_proof": "the AZTEC proof object"
        }
      },
      "isOwner()": {
        "details": "Returns true if the caller is the current owner."
      },
      "mint(uint24,bytes,address)": {
        "details": "Mint AZTEC notes     ",
        "params": {
          "_proof": "the AZTEC proof object",
          "_proofData": "the mint proof construction data",
          "_proofSender": "the Ethereum address of the original transaction sender. It is explicitly assumed that       an asset using ACE supplies this field correctly - if they don't their asset is vulnerable to front-running Unnamed param is the AZTEC zero-knowledge proof data"
        },
        "return": "two `bytes` objects. The first contains the new confidentialTotalSupply note and the second contains the notes that were created. Returned so that a zkAsset can emit the appropriate events"
      },
      "owner()": {
        "details": "Returns the address of the current owner."
      },
      "publicApprove(address,bytes32,uint256)": {
        "details": "This should be called from an asset contract."
      },
      "renounceOwnership()": {
        "details": "Leaves the contract without owner. It will not be possible to call `onlyOwner` functions anymore. Can only be called by the current owner.     * > Note: Renouncing ownership will leave the contract without an owner, thereby removing any functionality that is only available to the owner."
      },
      "setCommonReferenceString(bytes32[6])": {
        "details": "Set the common reference string.     If the trusted setup is re-run, we will need to be able to change the crs",
        "params": {
          "_commonReferenceString": "the new commonReferenceString"
        }
      },
      "setProof(uint24,address)": {
        "details": "Adds or modifies a proof into the Cryptography Engine.      This method links a given `_proof` to a smart contract validator.",
        "params": {
          "_proof": "the AZTEC proof object",
          "_validatorAddress": "the address of the smart contract validator"
        }
      },
      "supplementTokens(uint256)": {
        "details": "Call transferFrom on a linked ERC20 token. Used in cases where the ACE's mint function is called but the token balance of the note registry in question is insufficient",
        "params": {
          "_value": "the value to be transferred"
        }
      },
      "transferOwnership(address)": {
        "details": "Transfers ownership of the contract to a new account (`newOwner`). Can only be called by the current owner."
      },
      "updateNoteRegistry(uint24,bytes,address)": {
        "details": "Update the state of the note registry according to transfer instructions issued by a  zero-knowledge proof",
        "params": {
          "_proof": "- unique identifier for a proof",
          "_proofOutput": "- transfer instructions issued by a zero-knowledge proof",
          "_proofSender": "- address of the entity sending the proof"
        }
      },
      "validateProof(uint24,address,bytes)": {
        "details": "Validate an AZTEC zero-knowledge proof. ACE will issue a validation transaction to the smart contract     linked to `_proof`. The validator smart contract will have the following interface:          function validate(         bytes _proofData,          address _sender,          bytes32[6] _commonReferenceString     ) public returns (bytes)",
        "params": {
          "_proof": "the AZTEC proof object",
          "_sender": "the Ethereum address of the original transaction sender. It is explicitly assumed that       an asset using ACE supplies this field correctly - if they don't their asset is vulnerable to front-running Unnamed param is the AZTEC zero-knowledge proof data"
        },
        "return": "a `bytes proofOutputs` variable formatted according to the Cryptography Engine standard"
      },
      "validateProofByHash(uint24,bytes32,address)": {
        "details": "Validate a previously validated AZTEC proof via its hash     This enables confidential assets to receive transfer instructions from a dApp that     has already validated an AZTEC proof that satisfies a balancing relationship.",
        "params": {
          "_proof": "the AZTEC proof object",
          "_proofHash": "the hash of the `proofOutput` received by the asset",
          "_sender": "the Ethereum address of the contract issuing the transfer instruction"
        },
        "return": "a boolean that signifies whether the corresponding AZTEC proof has been validated"
      }
    },
    "title": "The AZTEC Cryptography Engine"
  },
  "userdoc": {
    "methods": {}
  }
}