{
  "contractName": "IAZTEC",
  "abi": [
    {
      "constant": true,
      "inputs": [],
      "name": "JOIN_SPLIT_PROOF",
      "outputs": [
        {
          "name": "",
          "type": "uint24"
        }
      ],
      "payable": false,
      "stateMutability": "view",
      "type": "function"
    },
    {
      "constant": true,
      "inputs": [],
      "name": "ZERO_VALUE_NOTE_HASH",
      "outputs": [
        {
          "name": "",
          "type": "bytes32"
        }
      ],
      "payable": false,
      "stateMutability": "view",
      "type": "function"
    },
    {
      "constant": true,
      "inputs": [],
      "name": "PRIVATE_RANGE_PROOF",
      "outputs": [
        {
          "name": "",
          "type": "uint24"
        }
      ],
      "payable": false,
      "stateMutability": "view",
      "type": "function"
    },
    {
      "constant": true,
      "inputs": [],
      "name": "DIVIDEND_PROOF",
      "outputs": [
        {
          "name": "",
          "type": "uint24"
        }
      ],
      "payable": false,
      "stateMutability": "view",
      "type": "function"
    },
    {
      "constant": true,
      "inputs": [],
      "name": "MINT_PROOF",
      "outputs": [
        {
          "name": "",
          "type": "uint24"
        }
      ],
      "payable": false,
      "stateMutability": "view",
      "type": "function"
    },
    {
      "constant": true,
      "inputs": [],
      "name": "BURN_PROOF",
      "outputs": [
        {
          "name": "",
          "type": "uint24"
        }
      ],
      "payable": false,
      "stateMutability": "view",
      "type": "function"
    }
  ],
  "bytecode": "0x608060405234801561001057600080fd5b50610143806100206000396000f3fe608060405234801561001057600080fd5b50600436106100715760003560e01c80638500e1f8116100505780638500e1f8146100b85780638e526d9b146100c0578063df924625146100c857610071565b80625bf73214610076578063076160511461009657806349518b28146100b0575b600080fd5b61007e6100d0565b6040805162ffffff9092168252519081900360200190f35b61009e6100d7565b60408051918252519081900360200190f35b61007e6100fb565b61007e610102565b61007e610109565b61007e610110565b6201010181565b7fcbc417524e52b95c42a4c42d357938497e3d199eb9b4a0139c92551d4000bc3c81565b6201040281565b6201040181565b6201020181565b620103018156fea165627a7a723058208deb755c956b9733e785ceda9a9b0a413b0f87726ed1b6065f320771ee97d5d00029",
  "source": "pragma solidity >=0.5.0 <0.6.0;\n\ncontract IAZTEC {\n    enum ProofCategory {\n        NULL,\n        BALANCED,\n        MINT,\n        BURN,\n        UTILITY\n    }\n\n    enum NoteStatus {\n        DOES_NOT_EXIST,\n        UNSPENT,\n        SPENT\n    }\n    // proofEpoch = 1 | proofCategory = 1 | proofId = 1\n    // 1 * 256**(2) + 1 * 256**(1) ++ 1 * 256**(0)\n    uint24 public constant JOIN_SPLIT_PROOF = 65793;\n\n    // proofEpoch = 1 | proofCategory = 2 | proofId = 1\n    // (1 * 256**(2)) + (2 * 256**(1)) + (1 * 256**(0))\n    uint24 public constant MINT_PROOF = 66049;\n\n    // proofEpoch = 1 | proofCategory = 3 | proofId = 1\n    // (1 * 256**(2)) + (3 * 256**(1)) + (1 * 256**(0))\n    uint24 public constant BURN_PROOF = 66305;\n\n    // proofEpoch = 1 | proofCategory = 4 | proofId = 2\n    // (1 * 256**(2)) + (4 * 256**(1)) + (2 * 256**(0))\n    uint24 public constant PRIVATE_RANGE_PROOF = 66562;\n\n    // proofEpoch = 1 | proofCategory = 4 | proofId = 1\n    // (1 * 256**(2)) + (4 * 256**(1)) + (2 * 256**(0))\n    uint24 public constant DIVIDEND_PROOF = 66561;\n\n\n    // Hash of a dummy AZTEC note with k = 0 and a = 1\n    bytes32 public constant ZERO_VALUE_NOTE_HASH = 0xcbc417524e52b95c42a4c42d357938497e3d199eb9b4a0139c92551d4000bc3c;\n}\n",
  "sourcePath": "@aztec/protocol/contracts/interfaces/IAZTEC.sol",
  "compiler": {
    "name": "solc",
    "version": "0.5.4+commit.9549d8ff.Emscripten.clang"
  },
  "schemaVersion": "3.0.11",
  "updatedAt": "2019-08-03T01:41:57.199Z",
  "devdoc": {
    "methods": {}
  },
  "userdoc": {
    "methods": {}
  }
}