{
  "contractName": "ZkAssetBase",
  "abi": [
    {
      "constant": true,
      "inputs": [],
      "name": "JOIN_SPLIT_PROOF",
      "outputs": [
        {
          "name": "",
          "type": "uint24"
        }
      ],
      "payable": false,
      "stateMutability": "view",
      "type": "function"
    },
    {
      "constant": true,
      "inputs": [],
      "name": "ZERO_VALUE_NOTE_HASH",
      "outputs": [
        {
          "name": "",
          "type": "bytes32"
        }
      ],
      "payable": false,
      "stateMutability": "view",
      "type": "function"
    },
    {
      "constant": true,
      "inputs": [
        {
          "name": "",
          "type": "bytes32"
        },
        {
          "name": "",
          "type": "address"
        }
      ],
      "name": "confidentialApproved",
      "outputs": [
        {
          "name": "",
          "type": "bool"
        }
      ],
      "payable": false,
      "stateMutability": "view",
      "type": "function"
    },
    {
      "constant": true,
      "inputs": [],
      "name": "PRIVATE_RANGE_PROOF",
      "outputs": [
        {
          "name": "",
          "type": "uint24"
        }
      ],
      "payable": false,
      "stateMutability": "view",
      "type": "function"
    },
    {
      "constant": true,
      "inputs": [],
      "name": "DIVIDEND_PROOF",
      "outputs": [
        {
          "name": "",
          "type": "uint24"
        }
      ],
      "payable": false,
      "stateMutability": "view",
      "type": "function"
    },
    {
      "constant": true,
      "inputs": [],
      "name": "MINT_PROOF",
      "outputs": [
        {
          "name": "",
          "type": "uint24"
        }
      ],
      "payable": false,
      "stateMutability": "view",
      "type": "function"
    },
    {
      "constant": true,
      "inputs": [],
      "name": "ace",
      "outputs": [
        {
          "name": "",
          "type": "address"
        }
      ],
      "payable": false,
      "stateMutability": "view",
      "type": "function"
    },
    {
      "constant": true,
      "inputs": [],
      "name": "BURN_PROOF",
      "outputs": [
        {
          "name": "",
          "type": "uint24"
        }
      ],
      "payable": false,
      "stateMutability": "view",
      "type": "function"
    },
    {
      "constant": true,
      "inputs": [],
      "name": "EIP712_DOMAIN_HASH",
      "outputs": [
        {
          "name": "",
          "type": "bytes32"
        }
      ],
      "payable": false,
      "stateMutability": "view",
      "type": "function"
    },
    {
      "constant": true,
      "inputs": [],
      "name": "linkedToken",
      "outputs": [
        {
          "name": "",
          "type": "address"
        }
      ],
      "payable": false,
      "stateMutability": "view",
      "type": "function"
    },
    {
      "constant": true,
      "inputs": [],
      "name": "scalingFactor",
      "outputs": [
        {
          "name": "",
          "type": "uint256"
        }
      ],
      "payable": false,
      "stateMutability": "view",
      "type": "function"
    },
    {
      "inputs": [
        {
          "name": "_aceAddress",
          "type": "address"
        },
        {
          "name": "_linkedTokenAddress",
          "type": "address"
        },
        {
          "name": "_scalingFactor",
          "type": "uint256"
        },
        {
          "name": "_canAdjustSupply",
          "type": "bool"
        }
      ],
      "payable": false,
      "stateMutability": "nonpayable",
      "type": "constructor"
    },
    {
      "anonymous": false,
      "inputs": [
        {
          "indexed": true,
          "name": "aceAddress",
          "type": "address"
        },
        {
          "indexed": true,
          "name": "linkedTokenAddress",
          "type": "address"
        },
        {
          "indexed": false,
          "name": "scalingFactor",
          "type": "uint256"
        },
        {
          "indexed": true,
          "name": "_canAdjustSupply",
          "type": "bool"
        },
        {
          "indexed": false,
          "name": "_canConvert",
          "type": "bool"
        }
      ],
      "name": "CreateZkAsset",
      "type": "event"
    },
    {
      "anonymous": false,
      "inputs": [
        {
          "indexed": false,
          "name": "noteRegistryId",
          "type": "uint256"
        }
      ],
      "name": "CreateNoteRegistry",
      "type": "event"
    },
    {
      "anonymous": false,
      "inputs": [
        {
          "indexed": true,
          "name": "owner",
          "type": "address"
        },
        {
          "indexed": true,
          "name": "noteHash",
          "type": "bytes32"
        },
        {
          "indexed": false,
          "name": "metadata",
          "type": "bytes"
        }
      ],
      "name": "CreateNote",
      "type": "event"
    },
    {
      "anonymous": false,
      "inputs": [
        {
          "indexed": true,
          "name": "owner",
          "type": "address"
        },
        {
          "indexed": true,
          "name": "noteHash",
          "type": "bytes32"
        },
        {
          "indexed": false,
          "name": "metadata",
          "type": "bytes"
        }
      ],
      "name": "DestroyNote",
      "type": "event"
    },
    {
      "anonymous": false,
      "inputs": [
        {
          "indexed": true,
          "name": "owner",
          "type": "address"
        },
        {
          "indexed": false,
          "name": "value",
          "type": "uint256"
        }
      ],
      "name": "ConvertTokens",
      "type": "event"
    },
    {
      "anonymous": false,
      "inputs": [
        {
          "indexed": true,
          "name": "owner",
          "type": "address"
        },
        {
          "indexed": false,
          "name": "value",
          "type": "uint256"
        }
      ],
      "name": "RedeemTokens",
      "type": "event"
    },
    {
      "anonymous": false,
      "inputs": [
        {
          "indexed": true,
          "name": "owner",
          "type": "address"
        },
        {
          "indexed": true,
          "name": "noteHash",
          "type": "bytes32"
        },
        {
          "indexed": false,
          "name": "metadata",
          "type": "bytes"
        }
      ],
      "name": "UpdateNoteMetadata",
      "type": "event"
    },
    {
      "constant": false,
      "inputs": [
        {
          "name": "_proofData",
          "type": "bytes"
        },
        {
          "name": "_signatures",
          "type": "bytes"
        }
      ],
      "name": "confidentialTransfer",
      "outputs": [],
      "payable": false,
      "stateMutability": "nonpayable",
      "type": "function"
    },
    {
      "constant": false,
      "inputs": [
        {
          "name": "_noteHash",
          "type": "bytes32"
        },
        {
          "name": "_spender",
          "type": "address"
        },
        {
          "name": "_status",
          "type": "bool"
        },
        {
          "name": "_signature",
          "type": "bytes"
        }
      ],
      "name": "confidentialApprove",
      "outputs": [],
      "payable": false,
      "stateMutability": "nonpayable",
      "type": "function"
    },
    {
      "constant": false,
      "inputs": [
        {
          "name": "_proof",
          "type": "uint24"
        },
        {
          "name": "_proofOutput",
          "type": "bytes"
        }
      ],
      "name": "confidentialTransferFrom",
      "outputs": [],
      "payable": false,
      "stateMutability": "nonpayable",
      "type": "function"
    },
    {
      "constant": false,
      "inputs": [
        {
          "name": "noteHash",
          "type": "bytes32"
        },
        {
          "name": "metadata",
          "type": "bytes"
        }
      ],
      "name": "updateNoteMetaData",
      "outputs": [],
      "payable": false,
      "stateMutability": "nonpayable",
      "type": "function"
    }
  ],
  "bytecode": "0x608060405234801561001057600080fd5b50604051608080611c1f8339810180604052608081101561003057600080fd5b50805160208083015160408085015160609586015182517f454950373132446f6d61696e2800000000000000000000000000000000000000818701527f737472696e67206e616d652c0000000000000000000000000000000000000000602d8201527f737472696e672076657273696f6e2c000000000000000000000000000000000060398201527f6164647265737320766572696679696e67436f6e74726163740000000000000060488201527f29000000000000000000000000000000000000000000000000000000000000006061820152835160428183030181526062820180865281519188019190912060a28301865260199091527f415a5445435f43525950544f4752415048595f454e47494e450000000000000060829092019190915283518085018552600181527f3100000000000000000000000000000000000000000000000000000000000000908701528351808701919091527fc8066e2c715ce196630b273cd256d8959d5b9fefc55e9e6d999fb0f08bb7f75f81850152600080516020611bff83398151915297810197909752306080888101919091528351808903909101815260a090970190925285519590930194909420600090815592939092600160a060020a0384161561020c57600161020f565b60005b604080517f454950373132446f6d61696e28000000000000000000000000000000000000006020808301919091527f737472696e67206e616d652c0000000000000000000000000000000000000000602d8301527f737472696e672076657273696f6e2c000000000000000000000000000000000060398301527f6164647265737320766572696679696e67436f6e74726163740000000000000060488301527f29000000000000000000000000000000000000000000000000000000000000006061830152825160428184030181526062830180855281519183019190912060a28401855260089091527f5a4b5f41535345540000000000000000000000000000000000000000000000006082909301929092528251808401845260018082527f3100000000000000000000000000000000000000000000000000000000000000918301919091528351808301939093527f34a1782c7b6da6ed013d1c63b38e9a7204574db51f6df9ff13aa1786590013fd83850152600080516020611bff833981519152606084015230600090811b6080808601919091528551808603909101815260a085018087528151919094012081558154600160a060020a038c8116600160a060020a03199283161793849055600280548d831693168317905560038b90557fa5468ca20000000000000000000000000000000000000000000000000000000090945260a485015260c4840189905287151560e48501528515156101048501529351949550169263a5468ca2926101248084019391929182900301818387803b15801561046057600080fd5b505af1158015610474573d6000803e3d6000fd5b505060408051868152841515602082015281518615159450600160a060020a03808a1694508a16927fca576e79bcb5c4a0045d9d596a80c733c3997559f688f69e5c03bd737d885b86928290030190a45050505050611727806104d86000396000f3fe608060405234801561001057600080fd5b50600436106100f45760003560e01c80638e526d9b11610097578063df92462511610066578063df924625146104cb578063e306f779146104d3578063ea12489f146104db578063ed3437f8146104e3576100f4565b80638e526d9b146102c057806396988498146102c8578063a5c8fa84146103f5578063cdfea90e14610419576100f4565b80631f2ac16a116100d35780631f2ac16a146101735780632e3b9a3b1461023957806349518b28146102b05780638500e1f8146102b8576100f4565b80625bf732146100f957806307616051146101195780630f4a80fe14610133575b600080fd5b6101016104eb565b6040805162ffffff9092168252519081900360200190f35b6101216104f2565b60408051918252519081900360200190f35b61015f6004803603604081101561014957600080fd5b5080359060200135600160a060020a0316610516565b604080519115158252519081900360200190f35b6102376004803603608081101561018957600080fd5b813591600160a060020a03602082013516916040820135151591908101906080810160608201356401000000008111156101c257600080fd5b8201836020820111156101d457600080fd5b803590602001918460018302840111640100000000831117156101f657600080fd5b91908080601f016020809104026020016040519081016040528093929190818152602001838380828437600092019190915250929550610536945050505050565b005b6102376004803603604081101561024f57600080fd5b8135919081019060408101602082013564010000000081111561027157600080fd5b82018360208201111561028357600080fd5b803590602001918460018302840111640100000000831117156102a557600080fd5b509092509050610777565b61010161092a565b610101610931565b610101610938565b610237600480360360408110156102de57600080fd5b8101906020810181356401000000008111156102f957600080fd5b82018360208201111561030b57600080fd5b8035906020019184600183028401116401000000008311171561032d57600080fd5b91908080601f016020809104026020016040519081016040528093929190818152602001838380828437600092019190915250929594936020810193503591505064010000000081111561038057600080fd5b82018360208201111561039257600080fd5b803590602001918460018302840111640100000000831117156103b457600080fd5b91908080601f01602080910402602001604051908101604052809392919081815260200183838082843760009201919091525092955061093f945050505050565b6103fd610ab6565b60408051600160a060020a039092168252519081900360200190f35b6102376004803603604081101561042f57600080fd5b62ffffff823516919081019060408101602082013564010000000081111561045657600080fd5b82018360208201111561046857600080fd5b8035906020019184600183028401116401000000008311171561048a57600080fd5b91908080601f016020809104026020016040519081016040528093929190818152602001838380828437600092019190915250929550610ac5945050505050565b610101610d2d565b610121610d34565b6103fd610d3a565b610121610d49565b6201010181565b7fcbc417524e52b95c42a4c42d357938497e3d199eb9b4a0139c92551d4000bc3c81565b600460209081526000928352604080842090915290825290205460ff1681565b600154604080517ffedee266000000000000000000000000000000000000000000000000000000008152306004820152602481018790529051600092600160a060020a03169163fedee266916044808301926080929190829003018186803b1580156105a157600080fd5b505afa1580156105b5573d6000803e3d6000fd5b505050506040513d60808110156105cb57600080fd5b50519050600160ff8216146106195760405160008051602061164483398151915281526004018080602001828103825260228152602001806115fa6022913960400191505060405180910390fd5b604080517f4e6f74655369676e6174757265280000000000000000000000000000000000006020808301919091527f62797465733332206e6f7465486173682c000000000000000000000000000000602e8301527f61646472657373207370656e6465722c00000000000000000000000000000000603f8301527f626f6f6c20737461747573000000000000000000000000000000000000000000604f8301527f2900000000000000000000000000000000000000000000000000000000000000605a8301528251603b818403018152605b83018452805190820120607b830152609b8201889052600160a060020a03871660bb83015260ff841660db808401919091528351808403909101815260fb909201909252805191012061073f818785610d4f565b5050506000928352600460209081526040808520600160a060020a039490941685529290529120805460ff1916911515919091179055565b600154604080517ffedee2660000000000000000000000000000000000000000000000000000000081523060048201526024810186905290516000928392600160a060020a039091169163fedee26691604480820192608092909190829003018186803b1580156107e757600080fd5b505afa1580156107fb573d6000803e3d6000fd5b505050506040513d608081101561081157600080fd5b5080516060909101519092509050600160ff8316146108695760405160008051602061164483398151915281526004018080602001828103825260228152602001806115fa6022913960400191505060405180910390fd5b600160a060020a03811633146108b85760405160008051602061164483398151915281526004018080602001828103825260458152602001806116646045913960600191505060405180910390fd5b8481600160a060020a03167f5c5b88831bccbd4efdc04b97a0bcb2a743b216c3cc74b4520ca833778ec87dfb868660405180806020018281038252848482818152602001925080828437600083820152604051601f909101601f19169092018290039550909350505050a35050505050565b6201040281565b6201040181565b6201020181565b6001546040517fa2866ea3000000000000000000000000000000000000000000000000000000008152620101016004820181815233602484018190526060604485018181528851606487015288519196600160a060020a03169563a2866ea395948a9390929160840190602085019080838360005b838110156109cc5781810151838201526020016109b4565b50505050905090810190601f1680156109f95780820380516001836020036101000a031916815260200191505b50945050505050600060405180830381600087803b158015610a1a57600080fd5b505af1158015610a2e573d6000803e3d6000fd5b505050506040513d6000823e601f3d908101601f191682016040526020811015610a5757600080fd5b810190808051640100000000811115610a6f57600080fd5b82016020810184811115610a8257600080fd5b8151640100000000811182820187101715610a9c57600080fd5b50509291905050509050610ab1818385610e71565b505050565b600154600160a060020a031681565b606080600080610ad48561120a565b93509350935093506000610ae785611234565b905060005b81811015610b82576000610b0e610b09888463ffffffff61123b16565b61129a565b50600081815260046020908152604080832033845290915290205490925060ff1615156001149050610b795760405160008051602061164483398151915281526004018080602001828103825260318152602001806116a96031913960400191505060405180910390fd5b50600101610aec565b506001546040517f977796d200000000000000000000000000000000000000000000000000000000815262ffffff89166004820190815233604483018190526060602484019081528a5160648501528a51600160a060020a039095169463977796d2948d948d94939092909160840190602086019080838360005b83811015610c15578181015183820152602001610bfd565b50505050905090810190601f168015610c425780820380516001836020036101000a031916815260200191505b50945050505050600060405180830381600087803b158015610c6357600080fd5b505af1158015610c77573d6000803e3d6000fd5b50505050610c84856112b8565b610c8d8461139c565b6000821215610cdb5782600160a060020a03167ffed3b27b73d78d9d1f344bbbf25f7af35e0ac4d6cf8193604ce18082168e461a836000036040518082815260200191505060405180910390a25b6000821315610d2457604080518381529051600160a060020a038516917f60213c45c34d8b94e495fd5871fdea7a7511f659e884ea25a0c8843b7f98bfad919081900360200190a25b50505050505050565b6201030181565b60005481565b600254600160a060020a031681565b60035481565b600154604080517ffedee266000000000000000000000000000000000000000000000000000000008152306004820152602481018590529051600092600160a060020a03169163fedee266916044808301926080929190829003018186803b158015610dba57600080fd5b505afa158015610dce573d6000803e3d6000fd5b505050506040513d6080811015610de457600080fd5b5060600151825190915060009015610e15576000610e018661147c565b9050610e0d818561149d565b915050610e18565b50335b600160a060020a0381811690831614610e6a57604051600080516020611644833981519152815260040180806020018281038252602881526020018061161c6028913960400191505060405180910390fd5b5050505050565b604081015160005b610e8285611234565b811015610e6a576060610e9b868363ffffffff61123b16565b6001546040517f977796d200000000000000000000000000000000000000000000000000000000815262010101600482018181523060448401819052606060248501908152865160648601528651969750600160a060020a039095169563977796d2959394889492939291608490910190602086019080838360005b83811015610f2f578181015183820152602001610f17565b50505050905090810190601f168015610f5c5780820380516001836020036101000a031916815260200191505b50945050505050600060405180830381600087803b158015610f7d57600080fd5b505af1158015610f91573d6000803e3d6000fd5b50505050606080600080610fa48561120a565b93509350935093506000610fb785611234565b11156111515760005b610fc985611234565b81101561114f576060610fdc8b836115ba565b90506000610ff3610b09888563ffffffff61123b16565b50604080517f4a6f696e53706c69745369676e617475726528000000000000000000000000006020808301919091527f75696e7432342070726f6f662c0000000000000000000000000000000000000060338301527f62797465733332206e6f7465486173682c000000000000000000000000000000828401527f75696e74323536206368616c6c656e67652c000000000000000000000000000060518301527f616464726573732073656e64657200000000000000000000000000000000000060638301527f290000000000000000000000000000000000000000000000000000000000000060718301528251605281840301815260728301845280519082012060928301526201010160b283015260d2820184905260f282018f905233610112808401919091528351808403909101815261013290920190925280519101209092509050611144818385610d4f565b505050600101610fc0565b505b61115a846112b8565b6111638361139c565b60008112156111b15781600160a060020a03167ffed3b27b73d78d9d1f344bbbf25f7af35e0ac4d6cf8193604ce18082168e461a826000036040518082815260200191505060405180910390a25b60008113156111fa57604080518281529051600160a060020a038416917f60213c45c34d8b94e495fd5871fdea7a7511f659e884ea25a0c8843b7f98bfad919081900360200190a25b5050505050600181019050610e79565b6020810151604082015160608301516080840151928401949190930192600160a060020a03169190565b6020015190565b6020828101519082028301604001518301908210806112935760405160008051602061164483398151915281526004018080602001828103825260228152602001806116da6022913960400191505060405180910390fd5b5092915050565b60408101516060820151600160a060020a0390911692909160800190565b60005b6112c482611234565b8110156113985760008060606112e3610b09868663ffffffff61123b16565b9250925092508183600160a060020a03167febd4bb7b61198df63305dd538f077db9df9b14339d8a6221e301487770d79227836040518080602001828103825283818151815260200191508051906020019080838360005b8381101561135357818101518382015260200161133b565b50505050905090810190601f1680156113805780820380516001836020036101000a031916815260200191505b509250505060405180910390a35050506001016112bb565b5050565b60005b6113a882611234565b8110156113985760008060606113c7610b09868663ffffffff61123b16565b9250925092508183600160a060020a03167f5ffb3072e4515cf3bfae8b16be9dff6313cf7c313a0c26faafe6971d8c7585f1836040518080602001828103825283818151815260200191508051906020019080838360005b8381101561143757818101518382015260200161141f565b50505050905090810190601f1680156114645780820380516001836020036101000a031916815260200191505b509250505060405180910390a350505060010161139f565b60008054604080516119019093526020919091529182526042601e20915290565b6000808251848452602084015160208560808760015afa601c8214601b831417606084141616925084518614600081146114d6576114db565b855194505b505083528080156114f35750600160a060020a038216155b151561129357600160a060020a038216151561155e5760408051600080516020611644833981519152815260206004820152601a60248201527f7369676e657220616464726573732063616e6e6f742062652030000000000000604482015290519081900360640190fd5b8015156112935760408051600080516020611644833981519152815260206004820152601960248201527f7369676e6174757265207265636f76657279206661696c656400000000000000604482015290519081900360640190fd5b6060908102919091016020818101516040808401519385015181519384019290925282810193909352818401528151808203909301835260800190529056fe6f6e6c7920756e7370656e74206e6f7465732063616e20626520617070726f766564746865206e6f7465206f776e657220646964206e6f74207369676e2074686973206d65737361676508c379a0000000000000000000000000000000000000000000000000000000007472616e73616374696f6e2073656e64657220646f6573206e6f74206d6174636820746865206f776e6572206f6620746865206e6f7465206265696e67207570646174656473656e64657220646f6573206e6f74206861766520617070726f76616c20746f207370656e6420696e707574206e6f7465415a54454320617272617920696e646578206973206f7574206f6620626f756e6473a165627a7a72305820699d18d63ce5a831ae5e05110ce9e0524a8ed80fc8817ccc79bae9cba35e9f8e0029c89efdaa54c0f20c7adf612882df0950f5a951637e0307cdcb4c672f298b8bc6",
  "source": "pragma solidity >=0.5.0 <0.6.0;\n\nimport \"openzeppelin-solidity/contracts/math/SafeMath.sol\";\n\nimport \"../../ACE/NoteRegistry.sol\";\nimport \"../../ACE/ACE.sol\";\nimport \"../../interfaces/IAZTEC.sol\";\nimport \"../../interfaces/IZkAsset.sol\";\nimport \"../../libs/LibEIP712.sol\";\nimport \"../../libs/ProofUtils.sol\";\n\n/**\n * @title ZkAssetBase\n * @author AZTEC\n * @dev A contract defining the standard interface and behaviours of a confidential asset.\n * The ownership values and transfer values are encrypted.\n * Copyright Spilbury Holdings Ltd 2019. All rights reserved.\n **/\ncontract ZkAssetBase is IZkAsset, IAZTEC, LibEIP712 {\n    using NoteUtils for bytes;\n    using SafeMath for uint256;\n\n    /**\n    * Note struct. This is the data that we store when we log AZTEC notes inside a NoteRegistry\n    *\n    * Data structured so that the entire struct fits in 1 storage word.\n    *\n    * @notice Yul is used to pack and unpack Note structs in storage for efficiency reasons,\n    *   see `NoteRegistry.updateInputNotes` and `NoteRegistry.updateOutputNotes` for more details\n    **/\n    struct Note {\n        // `status` uses the IAZTEC.NoteStatus enum to track the lifecycle of a note.\n        uint8 status;\n\n        // `createdOn` logs the timestamp of the block that created this note. There are a few\n        // use cases that require measuring the age of a note, (e.g. interest rate computations).\n        // These lifetime are relevant on timescales of days/months, the 900-ish seconds that a miner\n        // can manipulate a timestamp has little effect, but should be considered when utilizing this parameter.\n        // We store `createdOn` in 5 bytes of data - just in case this contract is still around in 2038 :)\n        // This kicks the 'year 2038' problem down the road by about 400 years\n        uint40 createdOn;\n\n        // `destroyedOn` logs the timestamp of the block that destroys this note in a transaction.\n        // Default value is 0x0000000000 for notes that have not been spent.\n        uint40 destroyedOn;\n\n        // The owner of the note\n        address owner;\n    }\n\n    // EIP712 Domain Name value\n    string constant internal EIP712_DOMAIN_NAME = \"ZK_ASSET\";\n\n    // EIP712 Domain Version value\n    string constant internal EIP712_DOMAIN_VERSION = \"1\";\n\n    bytes32 constant internal NOTE_SIGNATURE_TYPEHASH = keccak256(abi.encodePacked(\n        \"NoteSignature(\",\n            \"bytes32 noteHash,\",\n            \"address spender,\",\n            \"bool status\",\n        \")\"\n    ));\n    \n    bytes32 constant internal JOIN_SPLIT_SIGNATURE_TYPE_HASH = keccak256(abi.encodePacked(\n        \"JoinSplitSignature(\",\n            \"uint24 proof,\",\n            \"bytes32 noteHash,\",\n            \"uint256 challenge,\",\n            \"address sender\",\n        \")\"\n    ));\n\n    ACE public ace;\n    IERC20 public linkedToken;\n\n    uint256 public scalingFactor;\n    mapping(bytes32 => mapping(address => bool)) public confidentialApproved;\n\n    constructor(\n        address _aceAddress,\n        address _linkedTokenAddress,\n        uint256 _scalingFactor,\n        bool _canAdjustSupply\n    ) public {\n        bool canConvert = (_linkedTokenAddress == address(0x0)) ? false : true;\n        EIP712_DOMAIN_HASH = keccak256(abi.encodePacked(\n            EIP712_DOMAIN_SEPARATOR_SCHEMA_HASH,\n            keccak256(bytes(EIP712_DOMAIN_NAME)),\n            keccak256(bytes(EIP712_DOMAIN_VERSION)),\n            bytes32(uint256(address(this)))\n        ));\n        ace = ACE(_aceAddress);\n        linkedToken = IERC20(_linkedTokenAddress);\n        scalingFactor = _scalingFactor;\n        ace.createNoteRegistry(\n            _linkedTokenAddress,\n            _scalingFactor,\n            _canAdjustSupply,\n            canConvert\n        );\n        emit CreateZkAsset(\n            _aceAddress,\n            _linkedTokenAddress,\n            _scalingFactor,\n            _canAdjustSupply,\n            canConvert\n        );\n    }\n    \n    /**\n    * @dev Executes a basic unilateral, confidential transfer of AZTEC notes\n    * Will submit _proofData to the validateProof() function of the Cryptography Engine.\n    *\n    * Upon successfull verification, it will update note registry state - creating output notes and\n    * destroying input notes.\n    *\n    * @param _proofData - bytes variable outputted from a proof verification contract, representing\n    * transfer instructions for the ACE\n    * @param _signatures - array of the ECDSA signatures over all inputNotes \n    */\n    function confidentialTransfer(bytes memory _proofData, bytes memory _signatures) public {\n        bytes memory proofOutputs = ace.validateProof(JOIN_SPLIT_PROOF, msg.sender, _proofData);\n        confidentialTransferInternal(proofOutputs, _signatures, _proofData);\n    }\n\n    /**\n    * @dev Note owner approving a third party, another address, to spend the note on\n    * owner's behalf. This is necessary to allow the confidentialTransferFrom() method\n    * to be called\n    *\n    * @param _noteHash - keccak256 hash of the note coordinates (gamma and sigma)\n    * @param _spender - address being approved to spend the note\n    * @param _status - defines whether the _spender address is being approved to spend the\n    * note, or if permission is being revoked\n    * @param _signature - ECDSA signature from the note owner that validates the\n    * confidentialApprove() instruction\n    */\n    function confidentialApprove(\n        bytes32 _noteHash,\n        address _spender,\n        bool _status,\n        bytes memory _signature\n    ) public {\n        ( uint8 status, , , ) = ace.getNote(address(this), _noteHash);\n        require(status == 1, \"only unspent notes can be approved\");\n        bytes32 _hashStruct = keccak256(abi.encode(\n                NOTE_SIGNATURE_TYPEHASH,\n                _noteHash,\n                _spender,\n                status\n        ));\n\n        validateSignature(_hashStruct, _noteHash, _signature);\n        confidentialApproved[_noteHash][_spender] = _status;\n    }\n\n    /**\n    * @dev Perform ECDSA signature validation for a signature over an input note\n    * \n    * @param _hashStruct - the data to sign in an EIP712 signature\n    * @param _noteHash - keccak256 hash of the note coordinates (gamma and sigma)\n    * @param _signature - ECDSA signature for a particular input note \n    */\n    function validateSignature(\n        bytes32 _hashStruct,\n        bytes32 _noteHash,\n        bytes memory _signature\n    ) internal view {\n        (, , , address noteOwner ) = ace.getNote(address(this), _noteHash);\n\n        address signer;\n        if (_signature.length != 0) {\n            // validate EIP712 signature\n            bytes32 msgHash = hashEIP712Message(_hashStruct);\n            signer = recoverSignature(\n                msgHash,\n                _signature\n            );\n        } else {\n            signer = msg.sender;\n        }\n        require(signer == noteOwner, \"the note owner did not sign this message\");\n    }\n\n    /**\n    * @dev Extract the appropriate ECDSA signature from an array of signatures,\n    * \n    * @param _signatures - array of ECDSA signatures over all inputNotes \n    * @param _i - index used to determine which signature element is desired\n    */\n    function extractSignature(bytes memory _signatures, uint _i) internal pure returns (\n        bytes memory _signature\n    ){\n        bytes32 v;\n        bytes32 r;\n        bytes32 s;\n        assembly {\n            // memory map of signatures\n            // 0x00 - 0x20 : length of signature array\n            // 0x20 - 0x40 : first sig, v \n            // 0x40 - 0x60 : first sig, r \n            // 0x60 - 0x80 : first sig, s\n            // 0x80 - 0xa0 : second sig, v\n            // and so on...\n            // Length of a signature = 0x60\n            \n            v := mload(add(add(_signatures, 0x20), mul(_i, 0x60)))\n            r := mload(add(add(_signatures, 0x40), mul(_i, 0x60)))\n            s := mload(add(add(_signatures, 0x60), mul(_i, 0x60)))\n        }\n        _signature = abi.encode(v, r, s);\n    }\n\n    /**\n    * @dev Executes a value transfer mediated by smart contracts. The method is supplied with\n    * transfer instructions represented by a bytes _proofOutput argument that was outputted\n    * from a proof verification contract.\n    *\n    * @param _proof - uint24 variable which acts as a unique identifier for the proof which\n    * _proofOutput is being submitted. _proof contains three concatenated uint8 variables:\n    * 1) epoch number 2) category number 3) ID number for the proof\n    * @param _proofOutput - output of a zero-knowledge proof validation contract. Represents\n    * transfer instructions for the ACE\n    */\n    function confidentialTransferFrom(uint24 _proof, bytes memory _proofOutput) public {\n        (bytes memory inputNotes,\n        bytes memory outputNotes,\n        address publicOwner,\n        int256 publicValue) = _proofOutput.extractProofOutput();\n        \n        uint256 length = inputNotes.getLength();\n        for (uint i = 0; i < length; i += 1) {\n            (, bytes32 noteHash, ) = inputNotes.get(i).extractNote();\n            require(\n                confidentialApproved[noteHash][msg.sender] == true,\n                \"sender does not have approval to spend input note\"\n            );\n        }\n\n        ace.updateNoteRegistry(_proof, _proofOutput, msg.sender);\n\n        logInputNotes(inputNotes);\n        logOutputNotes(outputNotes);\n\n        if (publicValue < 0) {\n            emit ConvertTokens(publicOwner, uint256(-publicValue));\n        }\n        if (publicValue > 0) {\n            emit RedeemTokens(publicOwner, uint256(publicValue));\n        }\n    }\n\n    /**\n    * @dev Internal method to act on transfer instructions from a successful proof validation. \n    * Specifically, it:\n    * - extracts the relevant objects from the proofOutput object\n    * - validates an EIP712 signature over each input note\n    * - updates note registry state\n    * - emits events for note creation/destruction\n    * - converts or redeems tokens, according to the publicValue\n    * \n    * @param proofOutputs - transfer instructions from a zero-knowledege proof validator \n    * contract\n    * @param _signatures - ECDSA signatures over a set of input notes\n    * @param _proofData - cryptographic proof data outputted from a proof construction \n    * operation\n    */\n    function confidentialTransferInternal(\n        bytes memory proofOutputs,\n        bytes memory _signatures,\n        bytes memory _proofData\n    ) internal {\n        bytes32 _challenge;\n        assembly {\n            _challenge := mload(add(_proofData, 0x40))\n        }\n\n        for (uint i = 0; i < proofOutputs.getLength(); i += 1) {\n            bytes memory proofOutput = proofOutputs.get(i);\n            ace.updateNoteRegistry(JOIN_SPLIT_PROOF, proofOutput, address(this));\n            \n            (bytes memory inputNotes,\n            bytes memory outputNotes,\n            address publicOwner,\n            int256 publicValue) = proofOutput.extractProofOutput();\n\n \n            if (inputNotes.getLength() > uint(0)) {\n                \n                for (uint j = 0; j < inputNotes.getLength(); j += 1) {\n                    bytes memory _signature = extractSignature(_signatures, j);\n\n                    (, bytes32 noteHash, ) = inputNotes.get(j).extractNote();\n\n                    bytes32 hashStruct = keccak256(abi.encode(\n                        JOIN_SPLIT_SIGNATURE_TYPE_HASH,\n                        JOIN_SPLIT_PROOF,\n                        noteHash,\n                        _challenge,\n                        msg.sender\n                    ));\n\n                    validateSignature(hashStruct, noteHash, _signature);\n                }\n            }\n\n            logInputNotes(inputNotes);\n            logOutputNotes(outputNotes);\n            if (publicValue < 0) {\n                emit ConvertTokens(publicOwner, uint256(-publicValue));\n            }\n            if (publicValue > 0) {\n                emit RedeemTokens(publicOwner, uint256(publicValue));\n            }\n\n        }\n    }\n\n    /**\n    * @dev Update the metadata of a note that already exists in storage. \n    * @param noteHash - hash of a note, used as a unique identifier for the note\n    * @param metadata - metadata to update the note with. This should be the length of\n    * an IES encrypted viewing key, 0x177\n    */\n    function updateNoteMetaData(bytes32 noteHash, bytes calldata metadata) external {\n        // Get the note from this assets registry\n        ( uint8 status, , , address noteOwner ) = ace.getNote(address(this), noteHash);\n        require(status == 1, \"only unspent notes can be approved\");\n\n        // Only the note owner can update the note's metadata\n        require(noteOwner == msg.sender, \"transaction sender does not match the owner of the note being updated\");\n        emit UpdateNoteMetadata(noteOwner, noteHash, metadata);\n    }\n\n    /**\n    * @dev Emit events for all input notes, which represent notes being destroyed\n    * and removed from the note registry\n    *\n    * @param inputNotes - input notes being destroyed and removed from note registry state\n    */\n    function logInputNotes(bytes memory inputNotes) internal {\n        for (uint i = 0; i < inputNotes.getLength(); i += 1) {\n            (address noteOwner, bytes32 noteHash, bytes memory metadata) = inputNotes.get(i).extractNote();\n            emit DestroyNote(noteOwner, noteHash, metadata);\n        }\n    }\n\n    /**\n    * @dev Emit events for all output notes, which represent notes being created and added\n    * to the note registry\n    *\n    * @param outputNotes - outputNotes being created and added to note registry state\n    */\n    function logOutputNotes(bytes memory outputNotes) internal {\n        for (uint i = 0; i < outputNotes.getLength(); i += 1) {\n            (address noteOwner, bytes32 noteHash, bytes memory metadata) = outputNotes.get(i).extractNote();\n            emit CreateNote(noteOwner, noteHash, metadata);\n        }\n    }\n}\n",
  "sourcePath": "@aztec/protocol/contracts/ERC1724/base/ZkAssetBase.sol",
  "compiler": {
    "name": "solc",
    "version": "0.5.4+commit.9549d8ff.Emscripten.clang"
  },
  "schemaVersion": "3.0.11",
  "updatedAt": "2019-08-04T02:12:25.897Z",
  "devdoc": {
    "author": "AZTEC",
    "details": "A contract defining the standard interface and behaviours of a confidential asset. The ownership values and transfer values are encrypted. Copyright Spilbury Holdings Ltd 2019. All rights reserved.*",
    "methods": {
      "confidentialApprove(bytes32,address,bool,bytes)": {
        "details": "Note owner approving a third party, another address, to spend the note on owner's behalf. This is necessary to allow the confidentialTransferFrom() method to be called",
        "params": {
          "_noteHash": "- keccak256 hash of the note coordinates (gamma and sigma)",
          "_signature": "- ECDSA signature from the note owner that validates the confidentialApprove() instruction",
          "_spender": "- address being approved to spend the note",
          "_status": "- defines whether the _spender address is being approved to spend the note, or if permission is being revoked"
        }
      },
      "confidentialTransfer(bytes,bytes)": {
        "details": "Executes a basic unilateral, confidential transfer of AZTEC notes Will submit _proofData to the validateProof() function of the Cryptography Engine.    * Upon successfull verification, it will update note registry state - creating output notes and destroying input notes.",
        "params": {
          "_proofData": "- bytes variable outputted from a proof verification contract, representing transfer instructions for the ACE",
          "_signatures": "- array of the ECDSA signatures over all inputNotes "
        }
      },
      "confidentialTransferFrom(uint24,bytes)": {
        "details": "Executes a value transfer mediated by smart contracts. The method is supplied with transfer instructions represented by a bytes _proofOutput argument that was outputted from a proof verification contract.",
        "params": {
          "_proof": "- uint24 variable which acts as a unique identifier for the proof which _proofOutput is being submitted. _proof contains three concatenated uint8 variables: 1) epoch number 2) category number 3) ID number for the proof",
          "_proofOutput": "- output of a zero-knowledge proof validation contract. Represents transfer instructions for the ACE"
        }
      },
      "updateNoteMetaData(bytes32,bytes)": {
        "details": "Update the metadata of a note that already exists in storage. ",
        "params": {
          "metadata": "- metadata to update the note with. This should be the length of an IES encrypted viewing key, 0x177",
          "noteHash": "- hash of a note, used as a unique identifier for the note"
        }
      }
    },
    "title": "ZkAssetBase"
  },
  "userdoc": {
    "methods": {}
  }
}